{
  "abi": [
    {
      "inputs": [
        {
          "components": [
            {
              "internalType": "address",
              "name": "deployer",
              "type": "address"
            },
            {
              "internalType": "bytes",
              "name": "meta",
              "type": "bytes"
            }
          ],
          "internalType": "struct DeployerDiscoverableMetaV2ConstructionConfig",
          "name": "config",
          "type": "tuple"
        }
      ],
      "stateMutability": "nonpayable",
      "type": "constructor"
    },
    {
      "inputs": [
        {
          "internalType": "address",
          "name": "receiver",
          "type": "address"
        },
        {
          "internalType": "address",
          "name": "token",
          "type": "address"
        },
        {
          "internalType": "uint256",
          "name": "amount",
          "type": "uint256"
        }
      ],
      "name": "ActiveDebt",
      "type": "error"
    },
    {
      "inputs": [
        {
          "internalType": "bytes32",
          "name": "result",
          "type": "bytes32"
        }
      ],
      "name": "FlashLenderCallbackFailed",
      "type": "error"
    },
    {
      "inputs": [
        {
          "internalType": "uint256",
          "name": "i",
          "type": "uint256"
        }
      ],
      "name": "InvalidSignature",
      "type": "error"
    },
    {
      "inputs": [
        {
          "internalType": "uint256",
          "name": "minimumInput",
          "type": "uint256"
        },
        {
          "internalType": "uint256",
          "name": "input",
          "type": "uint256"
        }
      ],
      "name": "MinimumInput",
      "type": "error"
    },
    {
      "inputs": [
        {
          "internalType": "address",
          "name": "sender",
          "type": "address"
        },
        {
          "internalType": "address",
          "name": "owner",
          "type": "address"
        }
      ],
      "name": "NotOrderOwner",
      "type": "error"
    },
    {
      "inputs": [
        {
          "internalType": "bytes",
          "name": "unmeta",
          "type": "bytes"
        }
      ],
      "name": "NotRainMetaV1",
      "type": "error"
    },
    {
      "inputs": [
        {
          "internalType": "address",
          "name": "sender",
          "type": "address"
        }
      ],
      "name": "OrderNoHandleIO",
      "type": "error"
    },
    {
      "inputs": [
        {
          "internalType": "address",
          "name": "sender",
          "type": "address"
        }
      ],
      "name": "OrderNoInputs",
      "type": "error"
    },
    {
      "inputs": [
        {
          "internalType": "address",
          "name": "sender",
          "type": "address"
        }
      ],
      "name": "OrderNoOutputs",
      "type": "error"
    },
    {
      "inputs": [
        {
          "internalType": "address",
          "name": "sender",
          "type": "address"
        }
      ],
      "name": "OrderNoSources",
      "type": "error"
    },
    {
      "inputs": [],
      "name": "ReentrancyGuardReentrantCall",
      "type": "error"
    },
    {
      "inputs": [
        {
          "internalType": "address",
          "name": "owner",
          "type": "address"
        }
      ],
      "name": "SameOwner",
      "type": "error"
    },
    {
      "inputs": [
        {
          "internalType": "bytes",
          "name": "bytecode",
          "type": "bytes"
        },
        {
          "internalType": "uint256",
          "name": "sourceIndex",
          "type": "uint256"
        }
      ],
      "name": "SourceOffsetOutOfBounds",
      "type": "error"
    },
    {
      "inputs": [
        {
          "internalType": "address",
          "name": "aliceToken",
          "type": "address"
        },
        {
          "internalType": "address",
          "name": "bobToken",
          "type": "address"
        }
      ],
      "name": "TokenMismatch",
      "type": "error"
    },
    {
      "inputs": [
        {
          "internalType": "bytes32",
          "name": "expectedHash",
          "type": "bytes32"
        },
        {
          "internalType": "bytes32",
          "name": "actualHash",
          "type": "bytes32"
        }
      ],
      "name": "UnexpectedMetaHash",
      "type": "error"
    },
    {
      "inputs": [],
      "name": "ZeroAmount",
      "type": "error"
    },
    {
      "inputs": [
        {
          "internalType": "address",
          "name": "sender",
          "type": "address"
        },
        {
          "internalType": "address",
          "name": "token",
          "type": "address"
        },
        {
          "internalType": "uint256",
          "name": "vaultId",
          "type": "uint256"
        }
      ],
      "name": "ZeroDepositAmount",
      "type": "error"
    },
    {
      "inputs": [],
      "name": "ZeroReceiver",
      "type": "error"
    },
    {
      "inputs": [],
      "name": "ZeroToken",
      "type": "error"
    },
    {
      "inputs": [
        {
          "internalType": "address",
          "name": "sender",
          "type": "address"
        },
        {
          "internalType": "address",
          "name": "token",
          "type": "address"
        },
        {
          "internalType": "uint256",
          "name": "vaultId",
          "type": "uint256"
        }
      ],
      "name": "ZeroWithdrawTargetAmount",
      "type": "error"
    },
    {
      "anonymous": false,
      "inputs": [
        {
          "indexed": false,
          "internalType": "address",
          "name": "sender",
          "type": "address"
        },
        {
          "indexed": false,
          "internalType": "contract IExpressionDeployerV2",
          "name": "expressionDeployer",
          "type": "address"
        },
        {
          "components": [
            {
              "internalType": "address",
              "name": "owner",
              "type": "address"
            },
            {
              "internalType": "bool",
              "name": "handleIO",
              "type": "bool"
            },
            {
              "components": [
                {
                  "internalType": "contract IInterpreterV1",
                  "name": "interpreter",
                  "type": "address"
                },
                {
                  "internalType": "contract IInterpreterStoreV1",
                  "name": "store",
                  "type": "address"
                },
                {
                  "internalType": "address",
                  "name": "expression",
                  "type": "address"
                }
              ],
              "internalType": "struct Evaluable",
              "name": "evaluable",
              "type": "tuple"
            },
            {
              "components": [
                {
                  "internalType": "address",
                  "name": "token",
                  "type": "address"
                },
                {
                  "internalType": "uint8",
                  "name": "decimals",
                  "type": "uint8"
                },
                {
                  "internalType": "uint256",
                  "name": "vaultId",
                  "type": "uint256"
                }
              ],
              "internalType": "struct IO[]",
              "name": "validInputs",
              "type": "tuple[]"
            },
            {
              "components": [
                {
                  "internalType": "address",
                  "name": "token",
                  "type": "address"
                },
                {
                  "internalType": "uint8",
                  "name": "decimals",
                  "type": "uint8"
                },
                {
                  "internalType": "uint256",
                  "name": "vaultId",
                  "type": "uint256"
                }
              ],
              "internalType": "struct IO[]",
              "name": "validOutputs",
              "type": "tuple[]"
            }
          ],
          "indexed": false,
          "internalType": "struct Order",
          "name": "order",
          "type": "tuple"
        },
        {
          "indexed": false,
          "internalType": "bytes32",
          "name": "orderHash",
          "type": "bytes32"
        }
      ],
      "name": "AddOrder",
      "type": "event"
    },
    {
      "anonymous": false,
      "inputs": [
        {
          "indexed": false,
          "internalType": "address",
          "name": "sender",
          "type": "address"
        },
        {
          "components": [
            {
              "internalType": "uint256",
              "name": "aliceOutput",
              "type": "uint256"
            },
            {
              "internalType": "uint256",
              "name": "bobOutput",
              "type": "uint256"
            },
            {
              "internalType": "uint256",
              "name": "aliceInput",
              "type": "uint256"
            },
            {
              "internalType": "uint256",
              "name": "bobInput",
              "type": "uint256"
            }
          ],
          "indexed": false,
          "internalType": "struct ClearStateChange",
          "name": "clearStateChange",
          "type": "tuple"
        }
      ],
      "name": "AfterClear",
      "type": "event"
    },
    {
      "anonymous": false,
      "inputs": [
        {
          "indexed": false,
          "internalType": "address",
          "name": "sender",
          "type": "address"
        },
        {
          "components": [
            {
              "internalType": "address",
              "name": "owner",
              "type": "address"
            },
            {
              "internalType": "bool",
              "name": "handleIO",
              "type": "bool"
            },
            {
              "components": [
                {
                  "internalType": "contract IInterpreterV1",
                  "name": "interpreter",
                  "type": "address"
                },
                {
                  "internalType": "contract IInterpreterStoreV1",
                  "name": "store",
                  "type": "address"
                },
                {
                  "internalType": "address",
                  "name": "expression",
                  "type": "address"
                }
              ],
              "internalType": "struct Evaluable",
              "name": "evaluable",
              "type": "tuple"
            },
            {
              "components": [
                {
                  "internalType": "address",
                  "name": "token",
                  "type": "address"
                },
                {
                  "internalType": "uint8",
                  "name": "decimals",
                  "type": "uint8"
                },
                {
                  "internalType": "uint256",
                  "name": "vaultId",
                  "type": "uint256"
                }
              ],
              "internalType": "struct IO[]",
              "name": "validInputs",
              "type": "tuple[]"
            },
            {
              "components": [
                {
                  "internalType": "address",
                  "name": "token",
                  "type": "address"
                },
                {
                  "internalType": "uint8",
                  "name": "decimals",
                  "type": "uint8"
                },
                {
                  "internalType": "uint256",
                  "name": "vaultId",
                  "type": "uint256"
                }
              ],
              "internalType": "struct IO[]",
              "name": "validOutputs",
              "type": "tuple[]"
            }
          ],
          "indexed": false,
          "internalType": "struct Order",
          "name": "alice",
          "type": "tuple"
        },
        {
          "components": [
            {
              "internalType": "address",
              "name": "owner",
              "type": "address"
            },
            {
              "internalType": "bool",
              "name": "handleIO",
              "type": "bool"
            },
            {
              "components": [
                {
                  "internalType": "contract IInterpreterV1",
                  "name": "interpreter",
                  "type": "address"
                },
                {
                  "internalType": "contract IInterpreterStoreV1",
                  "name": "store",
                  "type": "address"
                },
                {
                  "internalType": "address",
                  "name": "expression",
                  "type": "address"
                }
              ],
              "internalType": "struct Evaluable",
              "name": "evaluable",
              "type": "tuple"
            },
            {
              "components": [
                {
                  "internalType": "address",
                  "name": "token",
                  "type": "address"
                },
                {
                  "internalType": "uint8",
                  "name": "decimals",
                  "type": "uint8"
                },
                {
                  "internalType": "uint256",
                  "name": "vaultId",
                  "type": "uint256"
                }
              ],
              "internalType": "struct IO[]",
              "name": "validInputs",
              "type": "tuple[]"
            },
            {
              "components": [
                {
                  "internalType": "address",
                  "name": "token",
                  "type": "address"
                },
                {
                  "internalType": "uint8",
                  "name": "decimals",
                  "type": "uint8"
                },
                {
                  "internalType": "uint256",
                  "name": "vaultId",
                  "type": "uint256"
                }
              ],
              "internalType": "struct IO[]",
              "name": "validOutputs",
              "type": "tuple[]"
            }
          ],
          "indexed": false,
          "internalType": "struct Order",
          "name": "bob",
          "type": "tuple"
        },
        {
          "components": [
            {
              "internalType": "uint256",
              "name": "aliceInputIOIndex",
              "type": "uint256"
            },
            {
              "internalType": "uint256",
              "name": "aliceOutputIOIndex",
              "type": "uint256"
            },
            {
              "internalType": "uint256",
              "name": "bobInputIOIndex",
              "type": "uint256"
            },
            {
              "internalType": "uint256",
              "name": "bobOutputIOIndex",
              "type": "uint256"
            },
            {
              "internalType": "uint256",
              "name": "aliceBountyVaultId",
              "type": "uint256"
            },
            {
              "internalType": "uint256",
              "name": "bobBountyVaultId",
              "type": "uint256"
            }
          ],
          "indexed": false,
          "internalType": "struct ClearConfig",
          "name": "clearConfig",
          "type": "tuple"
        }
      ],
      "name": "Clear",
      "type": "event"
    },
    {
      "anonymous": false,
      "inputs": [
        {
          "indexed": false,
          "internalType": "address",
          "name": "sender",
          "type": "address"
        },
        {
          "indexed": false,
          "internalType": "uint256[][]",
          "name": "context",
          "type": "uint256[][]"
        }
      ],
      "name": "Context",
      "type": "event"
    },
    {
      "anonymous": false,
      "inputs": [
        {
          "indexed": false,
          "internalType": "address",
          "name": "sender",
          "type": "address"
        },
        {
          "indexed": false,
          "internalType": "address",
          "name": "token",
          "type": "address"
        },
        {
          "indexed": false,
          "internalType": "uint256",
          "name": "vaultId",
          "type": "uint256"
        },
        {
          "indexed": false,
          "internalType": "uint256",
          "name": "amount",
          "type": "uint256"
        }
      ],
      "name": "Deposit",
      "type": "event"
    },
    {
      "anonymous": false,
      "inputs": [
        {
          "indexed": false,
          "internalType": "address",
          "name": "sender",
          "type": "address"
        },
        {
          "indexed": false,
          "internalType": "uint256",
          "name": "subject",
          "type": "uint256"
        },
        {
          "indexed": false,
          "internalType": "bytes",
          "name": "meta",
          "type": "bytes"
        }
      ],
      "name": "MetaV1",
      "type": "event"
    },
    {
      "anonymous": false,
      "inputs": [
        {
          "indexed": false,
          "internalType": "address",
          "name": "sender",
          "type": "address"
        },
        {
          "indexed": false,
          "internalType": "address",
          "name": "owner",
          "type": "address"
        },
        {
          "indexed": false,
          "internalType": "bytes32",
          "name": "orderHash",
          "type": "bytes32"
        }
      ],
      "name": "OrderExceedsMaxRatio",
      "type": "event"
    },
    {
      "anonymous": false,
      "inputs": [
        {
          "indexed": false,
          "internalType": "address",
          "name": "sender",
          "type": "address"
        },
        {
          "indexed": false,
          "internalType": "address",
          "name": "owner",
          "type": "address"
        },
        {
          "indexed": false,
          "internalType": "bytes32",
          "name": "orderHash",
          "type": "bytes32"
        }
      ],
      "name": "OrderNotFound",
      "type": "event"
    },
    {
      "anonymous": false,
      "inputs": [
        {
          "indexed": false,
          "internalType": "address",
          "name": "sender",
          "type": "address"
        },
        {
          "indexed": false,
          "internalType": "address",
          "name": "owner",
          "type": "address"
        },
        {
          "indexed": false,
          "internalType": "bytes32",
          "name": "orderHash",
          "type": "bytes32"
        }
      ],
      "name": "OrderZeroAmount",
      "type": "event"
    },
    {
      "anonymous": false,
      "inputs": [
        {
          "indexed": false,
          "internalType": "address",
          "name": "sender",
          "type": "address"
        },
        {
          "components": [
            {
              "internalType": "address",
              "name": "owner",
              "type": "address"
            },
            {
              "internalType": "bool",
              "name": "handleIO",
              "type": "bool"
            },
            {
              "components": [
                {
                  "internalType": "contract IInterpreterV1",
                  "name": "interpreter",
                  "type": "address"
                },
                {
                  "internalType": "contract IInterpreterStoreV1",
                  "name": "store",
                  "type": "address"
                },
                {
                  "internalType": "address",
                  "name": "expression",
                  "type": "address"
                }
              ],
              "internalType": "struct Evaluable",
              "name": "evaluable",
              "type": "tuple"
            },
            {
              "components": [
                {
                  "internalType": "address",
                  "name": "token",
                  "type": "address"
                },
                {
                  "internalType": "uint8",
                  "name": "decimals",
                  "type": "uint8"
                },
                {
                  "internalType": "uint256",
                  "name": "vaultId",
                  "type": "uint256"
                }
              ],
              "internalType": "struct IO[]",
              "name": "validInputs",
              "type": "tuple[]"
            },
            {
              "components": [
                {
                  "internalType": "address",
                  "name": "token",
                  "type": "address"
                },
                {
                  "internalType": "uint8",
                  "name": "decimals",
                  "type": "uint8"
                },
                {
                  "internalType": "uint256",
                  "name": "vaultId",
                  "type": "uint256"
                }
              ],
              "internalType": "struct IO[]",
              "name": "validOutputs",
              "type": "tuple[]"
            }
          ],
          "indexed": false,
          "internalType": "struct Order",
          "name": "order",
          "type": "tuple"
        },
        {
          "indexed": false,
          "internalType": "bytes32",
          "name": "orderHash",
          "type": "bytes32"
        }
      ],
      "name": "RemoveOrder",
      "type": "event"
    },
    {
      "anonymous": false,
      "inputs": [
        {
          "indexed": false,
          "internalType": "address",
          "name": "sender",
          "type": "address"
        },
        {
          "components": [
            {
              "components": [
                {
                  "internalType": "address",
                  "name": "owner",
                  "type": "address"
                },
                {
                  "internalType": "bool",
                  "name": "handleIO",
                  "type": "bool"
                },
                {
                  "components": [
                    {
                      "internalType": "contract IInterpreterV1",
                      "name": "interpreter",
                      "type": "address"
                    },
                    {
                      "internalType": "contract IInterpreterStoreV1",
                      "name": "store",
                      "type": "address"
                    },
                    {
                      "internalType": "address",
                      "name": "expression",
                      "type": "address"
                    }
                  ],
                  "internalType": "struct Evaluable",
                  "name": "evaluable",
                  "type": "tuple"
                },
                {
                  "components": [
                    {
                      "internalType": "address",
                      "name": "token",
                      "type": "address"
                    },
                    {
                      "internalType": "uint8",
                      "name": "decimals",
                      "type": "uint8"
                    },
                    {
                      "internalType": "uint256",
                      "name": "vaultId",
                      "type": "uint256"
                    }
                  ],
                  "internalType": "struct IO[]",
                  "name": "validInputs",
                  "type": "tuple[]"
                },
                {
                  "components": [
                    {
                      "internalType": "address",
                      "name": "token",
                      "type": "address"
                    },
                    {
                      "internalType": "uint8",
                      "name": "decimals",
                      "type": "uint8"
                    },
                    {
                      "internalType": "uint256",
                      "name": "vaultId",
                      "type": "uint256"
                    }
                  ],
                  "internalType": "struct IO[]",
                  "name": "validOutputs",
                  "type": "tuple[]"
                }
              ],
              "internalType": "struct Order",
              "name": "order",
              "type": "tuple"
            },
            {
              "internalType": "uint256",
              "name": "inputIOIndex",
              "type": "uint256"
            },
            {
              "internalType": "uint256",
              "name": "outputIOIndex",
              "type": "uint256"
            },
            {
              "components": [
                {
                  "internalType": "address",
                  "name": "signer",
                  "type": "address"
                },
                {
                  "internalType": "uint256[]",
                  "name": "context",
                  "type": "uint256[]"
                },
                {
                  "internalType": "bytes",
                  "name": "signature",
                  "type": "bytes"
                }
              ],
              "internalType": "struct SignedContextV1[]",
              "name": "signedContext",
              "type": "tuple[]"
            }
          ],
          "indexed": false,
          "internalType": "struct TakeOrderConfig",
          "name": "config",
          "type": "tuple"
        },
        {
          "indexed": false,
          "internalType": "uint256",
          "name": "input",
          "type": "uint256"
        },
        {
          "indexed": false,
          "internalType": "uint256",
          "name": "output",
          "type": "uint256"
        }
      ],
      "name": "TakeOrder",
      "type": "event"
    },
    {
      "anonymous": false,
      "inputs": [
        {
          "indexed": false,
          "internalType": "address",
          "name": "sender",
          "type": "address"
        },
        {
          "indexed": false,
          "internalType": "address",
          "name": "token",
          "type": "address"
        },
        {
          "indexed": false,
          "internalType": "uint256",
          "name": "vaultId",
          "type": "uint256"
        },
        {
          "indexed": false,
          "internalType": "uint256",
          "name": "targetAmount",
          "type": "uint256"
        },
        {
          "indexed": false,
          "internalType": "uint256",
          "name": "amount",
          "type": "uint256"
        }
      ],
      "name": "Withdraw",
      "type": "event"
    },
    {
      "inputs": [
        {
          "components": [
            {
              "components": [
                {
                  "internalType": "address",
                  "name": "token",
                  "type": "address"
                },
                {
                  "internalType": "uint8",
                  "name": "decimals",
                  "type": "uint8"
                },
                {
                  "internalType": "uint256",
                  "name": "vaultId",
                  "type": "uint256"
                }
              ],
              "internalType": "struct IO[]",
              "name": "validInputs",
              "type": "tuple[]"
            },
            {
              "components": [
                {
                  "internalType": "address",
                  "name": "token",
                  "type": "address"
                },
                {
                  "internalType": "uint8",
                  "name": "decimals",
                  "type": "uint8"
                },
                {
                  "internalType": "uint256",
                  "name": "vaultId",
                  "type": "uint256"
                }
              ],
              "internalType": "struct IO[]",
              "name": "validOutputs",
              "type": "tuple[]"
            },
            {
              "components": [
                {
                  "internalType": "contract IExpressionDeployerV2",
                  "name": "deployer",
                  "type": "address"
                },
                {
                  "internalType": "bytes",
                  "name": "bytecode",
                  "type": "bytes"
                },
                {
                  "internalType": "uint256[]",
                  "name": "constants",
                  "type": "uint256[]"
                }
              ],
              "internalType": "struct EvaluableConfigV2",
              "name": "evaluableConfig",
              "type": "tuple"
            },
            {
              "internalType": "bytes",
              "name": "meta",
              "type": "bytes"
            }
          ],
          "internalType": "struct OrderConfigV2",
          "name": "config",
          "type": "tuple"
        }
      ],
      "name": "addOrder",
      "outputs": [
        {
          "internalType": "bool",
          "name": "stateChanged",
          "type": "bool"
        }
      ],
      "stateMutability": "nonpayable",
      "type": "function"
    },
    {
      "inputs": [
        {
          "components": [
            {
              "internalType": "address",
              "name": "owner",
              "type": "address"
            },
            {
              "internalType": "bool",
              "name": "handleIO",
              "type": "bool"
            },
            {
              "components": [
                {
                  "internalType": "contract IInterpreterV1",
                  "name": "interpreter",
                  "type": "address"
                },
                {
                  "internalType": "contract IInterpreterStoreV1",
                  "name": "store",
                  "type": "address"
                },
                {
                  "internalType": "address",
                  "name": "expression",
                  "type": "address"
                }
              ],
              "internalType": "struct Evaluable",
              "name": "evaluable",
              "type": "tuple"
            },
            {
              "components": [
                {
                  "internalType": "address",
                  "name": "token",
                  "type": "address"
                },
                {
                  "internalType": "uint8",
                  "name": "decimals",
                  "type": "uint8"
                },
                {
                  "internalType": "uint256",
                  "name": "vaultId",
                  "type": "uint256"
                }
              ],
              "internalType": "struct IO[]",
              "name": "validInputs",
              "type": "tuple[]"
            },
            {
              "components": [
                {
                  "internalType": "address",
                  "name": "token",
                  "type": "address"
                },
                {
                  "internalType": "uint8",
                  "name": "decimals",
                  "type": "uint8"
                },
                {
                  "internalType": "uint256",
                  "name": "vaultId",
                  "type": "uint256"
                }
              ],
              "internalType": "struct IO[]",
              "name": "validOutputs",
              "type": "tuple[]"
            }
          ],
          "internalType": "struct Order",
          "name": "alice",
          "type": "tuple"
        },
        {
          "components": [
            {
              "internalType": "address",
              "name": "owner",
              "type": "address"
            },
            {
              "internalType": "bool",
              "name": "handleIO",
              "type": "bool"
            },
            {
              "components": [
                {
                  "internalType": "contract IInterpreterV1",
                  "name": "interpreter",
                  "type": "address"
                },
                {
                  "internalType": "contract IInterpreterStoreV1",
                  "name": "store",
                  "type": "address"
                },
                {
                  "internalType": "address",
                  "name": "expression",
                  "type": "address"
                }
              ],
              "internalType": "struct Evaluable",
              "name": "evaluable",
              "type": "tuple"
            },
            {
              "components": [
                {
                  "internalType": "address",
                  "name": "token",
                  "type": "address"
                },
                {
                  "internalType": "uint8",
                  "name": "decimals",
                  "type": "uint8"
                },
                {
                  "internalType": "uint256",
                  "name": "vaultId",
                  "type": "uint256"
                }
              ],
              "internalType": "struct IO[]",
              "name": "validInputs",
              "type": "tuple[]"
            },
            {
              "components": [
                {
                  "internalType": "address",
                  "name": "token",
                  "type": "address"
                },
                {
                  "internalType": "uint8",
                  "name": "decimals",
                  "type": "uint8"
                },
                {
                  "internalType": "uint256",
                  "name": "vaultId",
                  "type": "uint256"
                }
              ],
              "internalType": "struct IO[]",
              "name": "validOutputs",
              "type": "tuple[]"
            }
          ],
          "internalType": "struct Order",
          "name": "bob",
          "type": "tuple"
        },
        {
          "components": [
            {
              "internalType": "uint256",
              "name": "aliceInputIOIndex",
              "type": "uint256"
            },
            {
              "internalType": "uint256",
              "name": "aliceOutputIOIndex",
              "type": "uint256"
            },
            {
              "internalType": "uint256",
              "name": "bobInputIOIndex",
              "type": "uint256"
            },
            {
              "internalType": "uint256",
              "name": "bobOutputIOIndex",
              "type": "uint256"
            },
            {
              "internalType": "uint256",
              "name": "aliceBountyVaultId",
              "type": "uint256"
            },
            {
              "internalType": "uint256",
              "name": "bobBountyVaultId",
              "type": "uint256"
            }
          ],
          "internalType": "struct ClearConfig",
          "name": "clearConfig",
          "type": "tuple"
        },
        {
          "components": [
            {
              "internalType": "address",
              "name": "signer",
              "type": "address"
            },
            {
              "internalType": "uint256[]",
              "name": "context",
              "type": "uint256[]"
            },
            {
              "internalType": "bytes",
              "name": "signature",
              "type": "bytes"
            }
          ],
          "internalType": "struct SignedContextV1[]",
          "name": "aliceSignedContext",
          "type": "tuple[]"
        },
        {
          "components": [
            {
              "internalType": "address",
              "name": "signer",
              "type": "address"
            },
            {
              "internalType": "uint256[]",
              "name": "context",
              "type": "uint256[]"
            },
            {
              "internalType": "bytes",
              "name": "signature",
              "type": "bytes"
            }
          ],
          "internalType": "struct SignedContextV1[]",
          "name": "bobSignedContext",
          "type": "tuple[]"
        }
      ],
      "name": "clear",
      "outputs": [],
      "stateMutability": "nonpayable",
      "type": "function"
    },
    {
      "inputs": [
        {
          "internalType": "address",
          "name": "token",
          "type": "address"
        },
        {
          "internalType": "uint256",
          "name": "vaultId",
          "type": "uint256"
        },
        {
          "internalType": "uint256",
          "name": "amount",
          "type": "uint256"
        }
      ],
      "name": "deposit",
      "outputs": [],
      "stateMutability": "nonpayable",
      "type": "function"
    },
    {
      "inputs": [
        {
          "internalType": "address",
          "name": "",
          "type": "address"
        },
        {
          "internalType": "uint256",
          "name": "",
          "type": "uint256"
        }
      ],
      "name": "flashFee",
      "outputs": [
        {
          "internalType": "uint256",
          "name": "",
          "type": "uint256"
        }
      ],
      "stateMutability": "pure",
      "type": "function"
    },
    {
      "inputs": [
        {
          "internalType": "contract IERC3156FlashBorrower",
          "name": "receiver",
          "type": "address"
        },
        {
          "internalType": "address",
          "name": "token",
          "type": "address"
        },
        {
          "internalType": "uint256",
          "name": "amount",
          "type": "uint256"
        },
        {
          "internalType": "bytes",
          "name": "data",
          "type": "bytes"
        }
      ],
      "name": "flashLoan",
      "outputs": [
        {
          "internalType": "bool",
          "name": "",
          "type": "bool"
        }
      ],
      "stateMutability": "nonpayable",
      "type": "function"
    },
    {
      "inputs": [
        {
          "internalType": "address",
          "name": "token",
          "type": "address"
        }
      ],
      "name": "maxFlashLoan",
      "outputs": [
        {
          "internalType": "uint256",
          "name": "",
          "type": "uint256"
        }
      ],
      "stateMutability": "view",
      "type": "function"
    },
    {
      "inputs": [
        {
          "internalType": "bytes[]",
          "name": "data",
          "type": "bytes[]"
        }
      ],
      "name": "multicall",
      "outputs": [
        {
          "internalType": "bytes[]",
          "name": "results",
          "type": "bytes[]"
        }
      ],
      "stateMutability": "nonpayable",
      "type": "function"
    },
    {
      "inputs": [
        {
          "internalType": "bytes32",
          "name": "orderHash",
          "type": "bytes32"
        }
      ],
      "name": "orderExists",
      "outputs": [
        {
          "internalType": "bool",
          "name": "",
          "type": "bool"
        }
      ],
      "stateMutability": "view",
      "type": "function"
    },
    {
      "inputs": [
        {
          "components": [
            {
              "internalType": "address",
              "name": "owner",
              "type": "address"
            },
            {
              "internalType": "bool",
              "name": "handleIO",
              "type": "bool"
            },
            {
              "components": [
                {
                  "internalType": "contract IInterpreterV1",
                  "name": "interpreter",
                  "type": "address"
                },
                {
                  "internalType": "contract IInterpreterStoreV1",
                  "name": "store",
                  "type": "address"
                },
                {
                  "internalType": "address",
                  "name": "expression",
                  "type": "address"
                }
              ],
              "internalType": "struct Evaluable",
              "name": "evaluable",
              "type": "tuple"
            },
            {
              "components": [
                {
                  "internalType": "address",
                  "name": "token",
                  "type": "address"
                },
                {
                  "internalType": "uint8",
                  "name": "decimals",
                  "type": "uint8"
                },
                {
                  "internalType": "uint256",
                  "name": "vaultId",
                  "type": "uint256"
                }
              ],
              "internalType": "struct IO[]",
              "name": "validInputs",
              "type": "tuple[]"
            },
            {
              "components": [
                {
                  "internalType": "address",
                  "name": "token",
                  "type": "address"
                },
                {
                  "internalType": "uint8",
                  "name": "decimals",
                  "type": "uint8"
                },
                {
                  "internalType": "uint256",
                  "name": "vaultId",
                  "type": "uint256"
                }
              ],
              "internalType": "struct IO[]",
              "name": "validOutputs",
              "type": "tuple[]"
            }
          ],
          "internalType": "struct Order",
          "name": "order",
          "type": "tuple"
        }
      ],
      "name": "removeOrder",
      "outputs": [
        {
          "internalType": "bool",
          "name": "stateChanged",
          "type": "bool"
        }
      ],
      "stateMutability": "nonpayable",
      "type": "function"
    },
    {
      "inputs": [
        {
          "components": [
            {
              "internalType": "address",
              "name": "output",
              "type": "address"
            },
            {
              "internalType": "address",
              "name": "input",
              "type": "address"
            },
            {
              "internalType": "uint256",
              "name": "minimumInput",
              "type": "uint256"
            },
            {
              "internalType": "uint256",
              "name": "maximumInput",
              "type": "uint256"
            },
            {
              "internalType": "uint256",
              "name": "maximumIORatio",
              "type": "uint256"
            },
            {
              "components": [
                {
                  "components": [
                    {
                      "internalType": "address",
                      "name": "owner",
                      "type": "address"
                    },
                    {
                      "internalType": "bool",
                      "name": "handleIO",
                      "type": "bool"
                    },
                    {
                      "components": [
                        {
                          "internalType": "contract IInterpreterV1",
                          "name": "interpreter",
                          "type": "address"
                        },
                        {
                          "internalType": "contract IInterpreterStoreV1",
                          "name": "store",
                          "type": "address"
                        },
                        {
                          "internalType": "address",
                          "name": "expression",
                          "type": "address"
                        }
                      ],
                      "internalType": "struct Evaluable",
                      "name": "evaluable",
                      "type": "tuple"
                    },
                    {
                      "components": [
                        {
                          "internalType": "address",
                          "name": "token",
                          "type": "address"
                        },
                        {
                          "internalType": "uint8",
                          "name": "decimals",
                          "type": "uint8"
                        },
                        {
                          "internalType": "uint256",
                          "name": "vaultId",
                          "type": "uint256"
                        }
                      ],
                      "internalType": "struct IO[]",
                      "name": "validInputs",
                      "type": "tuple[]"
                    },
                    {
                      "components": [
                        {
                          "internalType": "address",
                          "name": "token",
                          "type": "address"
                        },
                        {
                          "internalType": "uint8",
                          "name": "decimals",
                          "type": "uint8"
                        },
                        {
                          "internalType": "uint256",
                          "name": "vaultId",
                          "type": "uint256"
                        }
                      ],
                      "internalType": "struct IO[]",
                      "name": "validOutputs",
                      "type": "tuple[]"
                    }
                  ],
                  "internalType": "struct Order",
                  "name": "order",
                  "type": "tuple"
                },
                {
                  "internalType": "uint256",
                  "name": "inputIOIndex",
                  "type": "uint256"
                },
                {
                  "internalType": "uint256",
                  "name": "outputIOIndex",
                  "type": "uint256"
                },
                {
                  "components": [
                    {
                      "internalType": "address",
                      "name": "signer",
                      "type": "address"
                    },
                    {
                      "internalType": "uint256[]",
                      "name": "context",
                      "type": "uint256[]"
                    },
                    {
                      "internalType": "bytes",
                      "name": "signature",
                      "type": "bytes"
                    }
                  ],
                  "internalType": "struct SignedContextV1[]",
                  "name": "signedContext",
                  "type": "tuple[]"
                }
              ],
              "internalType": "struct TakeOrderConfig[]",
              "name": "orders",
              "type": "tuple[]"
            },
            {
              "internalType": "bytes",
              "name": "data",
              "type": "bytes"
            }
          ],
          "internalType": "struct TakeOrdersConfigV2",
          "name": "config",
          "type": "tuple"
        }
      ],
      "name": "takeOrders",
      "outputs": [
        {
          "internalType": "uint256",
          "name": "totalInput",
          "type": "uint256"
        },
        {
          "internalType": "uint256",
          "name": "totalOutput",
          "type": "uint256"
        }
      ],
      "stateMutability": "nonpayable",
      "type": "function"
    },
    {
      "inputs": [
        {
          "internalType": "address",
          "name": "owner",
          "type": "address"
        },
        {
          "internalType": "address",
          "name": "token",
          "type": "address"
        },
        {
          "internalType": "uint256",
          "name": "vaultId",
          "type": "uint256"
        }
      ],
      "name": "vaultBalance",
      "outputs": [
        {
          "internalType": "uint256",
          "name": "",
          "type": "uint256"
        }
      ],
      "stateMutability": "view",
      "type": "function"
    },
    {
      "inputs": [
        {
          "internalType": "address",
          "name": "token",
          "type": "address"
        },
        {
          "internalType": "uint256",
          "name": "vaultId",
          "type": "uint256"
        },
        {
          "internalType": "uint256",
          "name": "targetAmount",
          "type": "uint256"
        }
      ],
      "name": "withdraw",
      "outputs": [],
      "stateMutability": "nonpayable",
      "type": "function"
    }
  ],
  "bytecode": {
    "object": "0x6080604052600180546001600160a01b031990811690915560028054909116905560006003553480156200003257600080fd5b5060405162005763380380620057638339810160408190526200005591620002d5565b600160005560208101517ff0c79e4006636a71899066ac45a478da4eafaa3117769678b6f18d96138bc15690829062000090908390620000e7565b60208101516040517fbea766d03fa1efd3f81cc8634d08320bc62bb0ed9234ac59bbaafa5893fb6b1391620000c99133913091620003e3565b60405180910390a18051620000de906200012e565b505050620004f9565b805160208201208281146200011e5760405163074fe10f60e41b815260048101849052602481018290526044015b60405180910390fd5b6200012982620001c5565b505050565b60408051600080825260208201818152828401938490526331a66b6560e01b90935291829182916001600160a01b038616916331a66b65916200017691906044820162000452565b6060604051808303816000875af115801562000196573d6000803e3d6000fd5b505050506040513d601f19601f82011682018060405250810190620001bc919062000489565b50505050505050565b620001d081620001f5565b620001f25780604051630c89984b60e31b8152600401620001159190620004dd565b50565b60006008825110156200020a57506000919050565b50600801516001600160401b031667ff0a89c674ee78741490565b634e487b7160e01b600052604160045260246000fd5b604080519081016001600160401b038111828210171562000260576200026062000225565b60405290565b604051601f8201601f191681016001600160401b038111828210171562000291576200029162000225565b604052919050565b6001600160a01b0381168114620001f257600080fd5b60005b83811015620002cc578181015183820152602001620002b2565b50506000910152565b60006020808385031215620002e957600080fd5b82516001600160401b03808211156200030157600080fd5b90840190604082870312156200031657600080fd5b620003206200023b565b82516200032d8162000299565b815282840151828111156200034157600080fd5b80840193505086601f8401126200035757600080fd5b8251828111156200036c576200036c62000225565b62000380601f8201601f1916860162000266565b925080835287858286010111156200039757600080fd5b620003a881868501878701620002af565b5092830152509392505050565b60008151808452620003cf816020860160208601620002af565b601f01601f19169290920160200192915050565b60018060a01b03841681528260208201526060604082015260006200040c6060830184620003b5565b95945050505050565b600081518084526020808501945080840160005b83811015620004475781518752958201959082019060010162000429565b509495945050505050565b606081526000606082015260806020820152600062000475608083018562000415565b82810360408401526200040c818562000415565b6000806000606084860312156200049f57600080fd5b8351620004ac8162000299565b6020850151909350620004bf8162000299565b6040850151909250620004d28162000299565b809150509250925092565b602081526000620004f26020830184620003b5565b9392505050565b61525a80620005096000396000f3fe608060405234801561001057600080fd5b50600436106100d45760003560e01c8063a715c66711610081578063d97b2e481161005b578063d97b2e48146101cb578063d9d98ce4146101de578063e23746a3146101f157600080fd5b8063a715c66714610170578063ac9650d814610198578063b5c5f672146101b857600080fd5b8063613255ab116100b2578063613255ab14610129578063847a1bc91461014a5780639e18968b1461015d57600080fd5b80630efe6a8b146100d95780632cb77e9f146100ee5780635cffe9de14610116575b600080fd5b6100ec6100e7366004613b91565b610204565b005b6101016100fc366004613bc6565b61034b565b60405190151581526020015b60405180910390f35b610101610124366004613bdf565b6103a1565b61013c610137366004613c7e565b61067f565b60405190815260200161010d565b610101610158366004613c9b565b610729565b6100ec61016b3660046141a0565b610c64565b61018361017e3660046142a3565b611225565b6040805192835260208301919091520161010d565b6101ab6101a63660046142d8565b61183c565b60405161010d91906143bb565b6100ec6101c6366004613b91565b611931565b61013c6101d936600461443b565b611a8f565b61013c6101ec36600461447c565b610720565b6101016101ff3660046142a3565b611b10565b61020c611c61565b80600003610270576040517f40e97a5e00000000000000000000000000000000000000000000000000000000815233600482015273ffffffffffffffffffffffffffffffffffffffff84166024820152604481018390526064015b60405180910390fd5b6040805133815273ffffffffffffffffffffffffffffffffffffffff85166020820152908101839052606081018290527fdcbc1c05240f31ff3ad067ef1ee35ce4997762752e3a095284754544f4c709d79060800160405180910390a16102ef73ffffffffffffffffffffffffffffffffffffffff8416333084611cd4565b33600090815260056020908152604080832073ffffffffffffffffffffffffffffffffffffffff871684528252808320858452909152812080548392906103379084906144d7565b90915550506001600055505050565b505050565b60008054600203610388576040517f3ee5aeb500000000000000000000000000000000000000000000000000000000815260040160405180910390fd5b506000818152600460205260409020546001145b919050565b600073ffffffffffffffffffffffffffffffffffffffff86166103f0576040517f6ba9ecd800000000000000000000000000000000000000000000000000000000815260040160405180910390fd5b73ffffffffffffffffffffffffffffffffffffffff851661043d576040517fad1991f500000000000000000000000000000000000000000000000000000000815260040160405180910390fd5b83600003610477576040517f1f2a200500000000000000000000000000000000000000000000000000000000815260040160405180910390fd5b61047f611db6565b6002805473ffffffffffffffffffffffffffffffffffffffff8088167fffffffffffffffffffffffff00000000000000000000000000000000000000009283161790925560018054928916929091169190911790556104df6000856144d7565b60035561050373ffffffffffffffffffffffffffffffffffffffff86168786611e27565b6040517f23e30c8b00000000000000000000000000000000000000000000000000000000815260009073ffffffffffffffffffffffffffffffffffffffff8816906323e30c8b906105629033908a908a9087908b908b90600401614533565b6020604051808303816000875af1158015610581573d6000803e3d6000fd5b505050506040513d601f19601f820116820180604052508101906105a59190614585565b90507f439148f0bbc682ca079e46d6e2c2f0c1e3b820f1a291b069d8882abf8cf18dd98114610603576040517f5b62c54800000000000000000000000000000000000000000000000000000000815260048101829052602401610267565b600354945084156106365761063073ffffffffffffffffffffffffffffffffffffffff8716883088611cd4565b60006003555b600180547fffffffffffffffffffffffff0000000000000000000000000000000000000000908116909155600280549091169055610672611db6565b5060019695505050505050565b6000610689611e7d565b610720576040517f70a0823100000000000000000000000000000000000000000000000000000000815230600482015273ffffffffffffffffffffffffffffffffffffffff8316906370a0823190602401602060405180830381865afa1580156106f7573d6000803e3d6000fd5b505050506040513d601f19601f8201168201806040525081019061071b9190614585565b610723565b60005b92915050565b6000610733611c61565b600061078d610745604085018561459e565b6107539060208101906145dc565b8080601f016020809104026020016040519081016040528093929190818152602001838380828437600092019190915250611ece92505050565b9050806000036107cb576040517f1914441e000000000000000000000000000000000000000000000000000000008152336004820152602401610267565b80600103610807576040517f7e47fcba000000000000000000000000000000000000000000000000000000008152336004820152602401610267565b6108118380614641565b905060000361084e576040517f32586a92000000000000000000000000000000000000000000000000000000008152336004820152602401610267565b61085b6020840184614641565b9050600003610898576040517f08d7d498000000000000000000000000000000000000000000000000000000008152336004820152602401610267565b600080806108a9604087018761459e565b6108b7906020810190613c7e565b73ffffffffffffffffffffffffffffffffffffffff166331a66b656108df604089018961459e565b6108ed9060208101906145dc565b6108fa60408b018b61459e565b6109089060408101906146a8565b6040805160028082526020820152600081830152606081019091526040518663ffffffff1660e01b815260040161094395949392919061474b565b6060604051808303816000875af1158015610962573d6000803e3d6000fd5b505050506040513d601f19601f8201168201806040525081019061098691906147bc565b92509250925060006040518060a001604052803373ffffffffffffffffffffffffffffffffffffffff1681526020016000610a158a80604001906109ca919061459e565b6109d89060208101906145dc565b8080601f01602080910402602001604051908101604052809392919081815260200183838082843760009201919091525060019250611eec915050565b1181526040805160608101825273ffffffffffffffffffffffffffffffffffffffff80891682528781166020838101919091529087168284015283015201610a5d8980614641565b808060200260200160405190810160405280939291908181526020016000905b82821015610aa957610a9a60608302860136819003810190614809565b81526020019060010190610a7d565b50505050508152602001888060200190610ac39190614641565b808060200260200160405190810160405280939291908181526020016000905b82821015610b0f57610b0060608302860136819003810190614809565b81526020019060010190610ae3565b505050505081525090506000610b2482611f05565b600081815260046020526040902054909150610c54576000818152600460205260409081902060019081905597507f6fa57e1a7a1fbbf3623af2b2025fcd9a5e7e4e31a2a6ec7523445f18e9c50ebf903390610b82908b018b61459e565b610b90906020810190613c7e565b8484604051610ba29493929190614907565b60405180910390a16000610bb960608a018a6145dc565b90501115610c5457610c0b610bd160608a018a6145dc565b8080601f016020809104026020016040519081016040528093929190818152602001838380828437600092019190915250611f3592505050565b7fbea766d03fa1efd3f81cc8634d08320bc62bb0ed9234ac59bbaafa5893fb6b133382610c3b60608c018c6145dc565b604051610c4b9493929190614951565b60405180910390a15b50505050505061039c6001600055565b610c6c611c61565b8351855173ffffffffffffffffffffffffffffffffffffffff918216911603610cdc5784516040517f227e4ce900000000000000000000000000000000000000000000000000000000815273ffffffffffffffffffffffffffffffffffffffff9091166004820152602401610267565b8360600151836040013581518110610cf657610cf6614987565b60200260200101516000015173ffffffffffffffffffffffffffffffffffffffff168560800151846020013581518110610d3257610d32614987565b60200260200101516000015173ffffffffffffffffffffffffffffffffffffffff1614610df7578460800151836020013581518110610d7357610d73614987565b6020026020010151600001518460600151846040013581518110610d9957610d99614987565b6020908102919091010151516040517ff902523f00000000000000000000000000000000000000000000000000000000815273ffffffffffffffffffffffffffffffffffffffff928316600482015291166024820152604401610267565b606085015180518435908110610e0f57610e0f614987565b60200260200101516000015173ffffffffffffffffffffffffffffffffffffffff168460800151846060013581518110610e4b57610e4b614987565b60200260200101516000015173ffffffffffffffffffffffffffffffffffffffff1614610eb057606085015180518435908110610e8a57610e8a614987565b6020026020010151600001518460800151846060013581518110610d9957610d99614987565b600060046000610ebf88611f05565b81526020019081526020016000205403610f3e577fb70c12fa453793fa6818ec07c91e74363a47aa6a6829dcd9533937fdf30314f3338660000151610f0388611f05565b6040805173ffffffffffffffffffffffffffffffffffffffff94851681529390921660208401529082015260600160405180910390a1611214565b600060046000610f4d87611f05565b81526020019081526020016000205403610f91577fb70c12fa453793fa6818ec07c91e74363a47aa6a6829dcd9533937fdf30314f3338560000151610f0387611f05565b7fd153812deb929a6e4378f6f8cf61d010470840bf2e736f43fb2275803958bfa233868686604051610fc694939291906149b6565b60405180910390a16000610fe98685600001358660200135886000015186611f79565b9050600061100686866040013587606001358a6000015188611f79565b90506000611014838361267d565b905061102a888260400151836000015186612726565b61103e878260600151836020015185612726565b6060810151815160009161105191614a40565b90506000826040015183602001516110699190614a40565b9050811561110f57336000908152600560209081526040822060808d01518051869492938d013590811061109f5761109f614987565b60200260200101516000015173ffffffffffffffffffffffffffffffffffffffff1673ffffffffffffffffffffffffffffffffffffffff16815260200190815260200160002060008a608001358152602001908152602001600020600082825461110991906144d7565b90915550505b80156111b35733600090815260056020526040812060808b015180518493919060608d013590811061114357611143614987565b60200260200101516000015173ffffffffffffffffffffffffffffffffffffffff1673ffffffffffffffffffffffffffffffffffffffff16815260200190815260200160002060008a60a00135815260200190815260200160002060008282546111ad91906144d7565b90915550505b5050604080513381528251602080830191909152830151818301529082015160608083019190915282015160808201527f3f20e55919cca701abb2a40ab72542b25ea7eed63a50f979dd2cd3231e5f488d9060a00160405180910390a15050505b61121e6001600055565b5050505050565b600080611230611c61565b6000611297604080516101208101825260006080820181815260a08301829052835160608082018652838252602080830185905282870185905260c086019290925260e0850181905261010085018190529184528301829052928201528181019190915290565b6040805160a08101825260008082526020808301829052835160608082018652838252918101839052808501929092529282015281810182905260808101829052908601355b6112ea60a08801886146a8565b9050841080156112fa5750600081115b156116d55761130c60a08801886146a8565b8581811061131c5761131c614987565b905060200281019061132e9190614a53565b61133790614a87565b80519093509150600061134983611f05565b6000818152600460205260409020549091506113bc5782516040805133815273ffffffffffffffffffffffffffffffffffffffff909216602083015281018290527fb70c12fa453793fa6818ec07c91e74363a47aa6a6829dcd9533937fdf30314f39060600160405180910390a16116c9565b6113c96020890189613c7e565b73ffffffffffffffffffffffffffffffffffffffff1683606001518560200151815181106113f9576113f9614987565b60200260200101516000015173ffffffffffffffffffffffffffffffffffffffff16146114a657826060015184602001518151811061143a5761143a614987565b6020908102919091018101515190611454908a018a613c7e565b6040517ff902523f00000000000000000000000000000000000000000000000000000000815273ffffffffffffffffffffffffffffffffffffffff928316600482015291166024820152604401610267565b6114b66040890160208a01613c7e565b73ffffffffffffffffffffffffffffffffffffffff1683608001518560400151815181106114e6576114e6614987565b60200260200101516000015173ffffffffffffffffffffffffffffffffffffffff161461154657826080015184604001518151811061152757611527614987565b6020026020010151600001518860200160208101906114549190613c7e565b60006115618486602001518760400151338960600151611f79565b90508860800135816020015111156115d15783516040805133815273ffffffffffffffffffffffffffffffffffffffff909216602083015281018390527fe3151dc8cb7a54ffc4baabd28c1f241c94d510b5e5b502491ac3cad6c16316d5906060015b60405180910390a16116c7565b805160000361162f5783516040805133815273ffffffffffffffffffffffffffffffffffffffff909216602083015281018390527f500b713857325f9e6dcb52ae832eca9109d107ed1aae9cb4928b4c1e13f051aa906060016115c4565b805160009084116116405783611643565b81515b905060006116618360200151600184612bd09092919063ffffffff16565b905061166d8286614a40565b9450611679818a6144d7565b985061168786828486612726565b7f219a030b7ae56e7bea2baab709a4a45dc174a1f85e57730e5cb395bc32962542338884846040516116bc9493929190614b21565b60405180910390a150505b505b506001909301926112dd565b6116e3816060890135614a40565b9550866040013586101561173057604080517f45094d8800000000000000000000000000000000000000000000000000000000815290880135600482015260248101879052604401610267565b600061174c61174560408a0160208b01613c7e565b3389612bee565b905060008111801561176c5750600061176860c08a018a6145dc565b9050115b156117f7573363059bebe661178760408b0160208c01613c7e565b61179460208c018c613c7e565b848a6117a360c08f018f6145dc565b6040518763ffffffff1660e01b81526004016117c496959493929190614533565b600060405180830381600087803b1580156117de57600080fd5b505af11580156117f2573d6000803e3d6000fd5b505050505b61182833308861180a60208d018d613c7e565b73ffffffffffffffffffffffffffffffffffffffff16929190611cd4565b50505050506118376001600055565b915091565b60608167ffffffffffffffff81111561185757611857613cd6565b60405190808252806020026020018201604052801561188a57816020015b60608152602001906001900390816118755790505b50905060005b8281101561192a576118fa308585848181106118ae576118ae614987565b90506020028101906118c091906145dc565b8080601f016020809104026020016040519081016040528093929190818152602001838380828437600092019190915250612c9f92505050565b82828151811061190c5761190c614987565b6020026020010181905250808061192290614c51565b915050611890565b5092915050565b611939611c61565b80600003611998576040517ff7a898f600000000000000000000000000000000000000000000000000000000815233600482015273ffffffffffffffffffffffffffffffffffffffff8416602482015260448101839052606401610267565b33600090815260056020908152604080832073ffffffffffffffffffffffffffffffffffffffff871684528252808320858452909152812054906119dc8383612cc4565b90508015611a83576119ee8183614a40565b33600081815260056020908152604080832073ffffffffffffffffffffffffffffffffffffffff8b168085529083528184208a855283529281902094909455835192835282015290810185905260608101849052608081018290527febff2602b3f468259e1e99f613fed6691f3a6526effe6ef3e768ba7ae7a36c4f9060a00160405180910390a1611a81853383612bee565b505b50506103466001600055565b60008054600203611acc576040517f3ee5aeb500000000000000000000000000000000000000000000000000000000815260040160405180910390fd5b5073ffffffffffffffffffffffffffffffffffffffff80841660009081526005602090815260408083209386168352928152828220848352905220545b9392505050565b6000611b1a611c61565b611b276020830183613c7e565b73ffffffffffffffffffffffffffffffffffffffff163373ffffffffffffffffffffffffffffffffffffffff1614611bb95733611b676020840184613c7e565b6040517f4702b91400000000000000000000000000000000000000000000000000000000815273ffffffffffffffffffffffffffffffffffffffff928316600482015291166024820152604401610267565b6000611bcc611bc784614c89565b611f05565b6000818152600460205260409020549091507fffffffffffffffffffffffffffffffffffffffffffffffffffffffffffffffff01611c56576000818152600460205260408082209190915551600192507f74037e398a4a92c9c1c49ac01c1dabd7f71165fbb4810b72c068f08edd19244890611c4d90339086908590614d65565b60405180910390a15b5061039c6001600055565b600260005403611ccd576040517f08c379a000000000000000000000000000000000000000000000000000000000815260206004820152601f60248201527f5265656e7472616e637947756172643a207265656e7472616e742063616c6c006044820152606401610267565b6002600055565b60405173ffffffffffffffffffffffffffffffffffffffff80851660248301528316604482015260648101829052611db09085907f23b872dd00000000000000000000000000000000000000000000000000000000906084015b604080517fffffffffffffffffffffffffffffffffffffffffffffffffffffffffffffffe08184030181529190526020810180517bffffffffffffffffffffffffffffffffffffffffffffffffffffffff167fffffffff0000000000000000000000000000000000000000000000000000000090931692909217909152612cda565b50505050565b611dbe611e7d565b15611e25576001546002546003546040517f60817cfa00000000000000000000000000000000000000000000000000000000815273ffffffffffffffffffffffffffffffffffffffff93841660048201529290911660248301526044820152606401610267565b565b60405173ffffffffffffffffffffffffffffffffffffffff83166024820152604481018290526103469084907fa9059cbb0000000000000000000000000000000000000000000000000000000090606401611d2e565b60015460009073ffffffffffffffffffffffffffffffffffffffff16151580611ebd575060025473ffffffffffffffffffffffffffffffffffffffff1615155b80611ec9575060035415155b905090565b60008151600003611ee157506000919050565b506020015160001a90565b600080611ef98484612de9565b5160001a949350505050565b600081604051602001611f189190614e6a565b604051602081830303815290604052805190602001209050919050565b611f3e81612e1a565b611f7657806040517f644cc2580000000000000000000000000000000000000000000000000000000081526004016102679190614e7d565b50565b611fab6040518060a0016040528060008152602001600081526020016060815260200160008152602001606081525090565b6000611fb687611f05565b60408051600480825260a08201909252919250606091600091816020015b6060815260200190600190039081611fd457905050895160408051600381526020810187905273ffffffffffffffffffffffffffffffffffffffff92831681830152918916606083015260808201905290915081600180038151811061203c5761203c614987565b60200260200101819052506121d18960600151898151811061206057612060614987565b60200260200101516000015173ffffffffffffffffffffffffffffffffffffffff168a606001518a8151811061209857612098614987565b60200260200101516020015160ff168b606001518b815181106120bd576120bd614987565b602002602001015160400151600560008e6000015173ffffffffffffffffffffffffffffffffffffffff1673ffffffffffffffffffffffffffffffffffffffff16815260200190815260200160002060008e606001518e8151811061212457612124614987565b60200260200101516000015173ffffffffffffffffffffffffffffffffffffffff1673ffffffffffffffffffffffffffffffffffffffff16815260200190815260200160002060008e606001518e8151811061218257612182614987565b602002602001015160400151815260200190815260200160002054600060408051600581526020810196909652858101949094526060850192909252608084015260a083015260c08201905290565b816001600303815181106121e7576121e7614987565b602002602001018190525061232d8960800151888151811061220b5761220b614987565b60200260200101516000015173ffffffffffffffffffffffffffffffffffffffff168a60800151898151811061224357612243614987565b60200260200101516020015160ff168b608001518a8151811061226857612268614987565b602002602001015160400151600560008e6000015173ffffffffffffffffffffffffffffffffffffffff1673ffffffffffffffffffffffffffffffffffffffff16815260200190815260200160002060008e608001518d815181106122cf576122cf614987565b60200260200101516000015173ffffffffffffffffffffffffffffffffffffffff1673ffffffffffffffffffffffffffffffffffffffff16815260200190815260200160002060008e608001518d8151811061218257612182614987565b8160016004038151811061234357612343614987565b60200260200101819052506123588186612e4a565b9150506000886000015173ffffffffffffffffffffffffffffffffffffffff1690506000808a604001516000015173ffffffffffffffffffffffffffffffffffffffff16636715f8258c6040015160200151856123bc8f604001516040015161315a565b886040518563ffffffff1660e01b81526004016123dc9493929190614ee5565b600060405180830381865afa1580156123f9573d6000803e3d6000fd5b505050506040513d6000823e601f3d9081017fffffffffffffffffffffffffffffffffffffffffffffffffffffffffffffffe016820160405261243f9190810190614f7b565b9150915060008260028451038151811061245b5761245b614987565b6020026020010151905060008360018551038151811061247d5761247d614987565b602002602001015190506124c18d608001518c815181106124a0576124a0614987565b60200260200101516020015160ff166002846131839092919063ffffffff16565b915061251d8d608001518c815181106124dc576124dc614987565b6020026020010151602001518e606001518e815181106124fe576124fe614987565b602002602001015160200151600184613208909392919063ffffffff16565b90506000600560008f6000015173ffffffffffffffffffffffffffffffffffffffff1673ffffffffffffffffffffffffffffffffffffffff16815260200190815260200160002060008f608001518e8151811061257c5761257c614987565b60200260200101516000015173ffffffffffffffffffffffffffffffffffffffff1673ffffffffffffffffffffffffffffffffffffffff16815260200190815260200160002060008f608001518e815181106125da576125da614987565b60200260200101516040015181526020019081526020016000205490508083116126045782612606565b805b604080516002815260208101839052808201859052606081019091529093508760028151811061263857612638614987565b60200260200101819052506040518060a00160405280848152602001838152602001888152602001878152602001858152509850505050505050505095945050505050565b6126a86040518060800160405280600081526020016000815260200160008152602001600081525090565b602082015182516126c7916126bf91906001612bd0565b845190612cc4565b8152602083015183516126e8916126e091906001612bd0565b835190612cc4565b6020808301919091528301518151612701916001612bd0565b60408201526020808301519082015161271b916001612bd0565b606082015292915050565b82816040015160038151811061273e5761273e614987565b602002602001015160048151811061275857612758614987565b60200260200101818152505081816040015160048151811061277c5761277c614987565b602002602001015160048151811061279657612796614987565b602090810291909101015282156128a357835173ffffffffffffffffffffffffffffffffffffffff166000908152600560205260408082209083015180518693919060039081106127e9576127e9614987565b602002602001015160008151811061280357612803614987565b602002602001015173ffffffffffffffffffffffffffffffffffffffff1673ffffffffffffffffffffffffffffffffffffffff1681526020019081526020016000206000836040015160038151811061285e5761285e614987565b602002602001015160028151811061287857612878614987565b60200260200101518152602001908152602001600020600082825461289d91906144d7565b90915550505b81156129a557835173ffffffffffffffffffffffffffffffffffffffff166000908152600560205260408082209083015180518593919060049081106128eb576128eb614987565b602002602001015160008151811061290557612905614987565b602002602001015173ffffffffffffffffffffffffffffffffffffffff1673ffffffffffffffffffffffffffffffffffffffff1681526020019081526020016000206000836040015160048151811061296057612960614987565b602002602001015160028151811061297a5761297a614987565b60200260200101518152602001908152602001600020600082825461299f9190614a40565b90915550505b7f17a5c0f3785132a57703932032f6863e7920434150aa1dc940e567b440fdce1f3382604001516040516129da929190614fdf565b60405180910390a160808101515115612a6b5783604001516020015173ffffffffffffffffffffffffffffffffffffffff1663946aadc6826060015183608001516040518363ffffffff1660e01b8152600401612a3892919061500e565b600060405180830381600087803b158015612a5257600080fd5b505af1158015612a66573d6000803e3d6000fd5b505050505b836020015115611db05760008085604001516000015173ffffffffffffffffffffffffffffffffffffffff16636715f8258760400151602001518560600151612abb8a6040015160400151613283565b87604001516040518563ffffffff1660e01b8152600401612adf9493929190614ee5565b600060405180830381865afa158015612afc573d6000803e3d6000fd5b505050506040513d6000823e601f3d9081017fffffffffffffffffffffffffffffffffffffffffffffffffffffffffffffffe0168201604052612b429190810190614f7b565b8051919350915015612bc85785604001516020015173ffffffffffffffffffffffffffffffffffffffff1663946aadc68460600151836040518363ffffffff1660e01b8152600401612b9592919061500e565b600060405180830381600087803b158015612baf57600080fd5b505af1158015612bc3573d6000803e3d6000fd5b505050505b505050505050565b6000612be68484670de0b6b3a7640000856132ae565b949350505050565b60025460009073ffffffffffffffffffffffffffffffffffffffff8581169116148015612c35575060015473ffffffffffffffffffffffffffffffffffffffff8481169116145b15612c78576000612c5160035484612cc490919063ffffffff16565b9050612c5d8184614a40565b92508060036000828254612c719190614a40565b9091555050505b811561192a5761192a73ffffffffffffffffffffffffffffffffffffffff85168484611e27565b6060611b0983836040518060600160405280602781526020016152336027913961330b565b6000818310612cd35781611b09565b5090919050565b6000612d3c826040518060400160405280602081526020017f5361666545524332303a206c6f772d6c6576656c2063616c6c206661696c65648152508573ffffffffffffffffffffffffffffffffffffffff166133909092919063ffffffff16565b9050805160001480612d5d575080806020019051810190612d5d9190615027565b610346576040517f08c379a000000000000000000000000000000000000000000000000000000000815260206004820152602a60248201527f5361666545524332303a204552433230206f7065726174696f6e20646964206e60448201527f6f742073756363656564000000000000000000000000000000000000000000006064820152608401610267565b600080612df584611ece565b60020260010190506000612e09858561339f565b949091019093016020019392505050565b6000600882511015612e2e57506000919050565b506008015167ffffffffffffffff1667ff0a89c674ee78741490565b60606000825167ffffffffffffffff811115612e6857612e68613cd6565b604051908082528060200260200182016040528015612e91578160200160208202803683370190505b509050600080845111612ea5576000612eab565b83516001015b855160010101905060008167ffffffffffffffff811115612ece57612ece613cd6565b604051908082528060200260200182016040528015612f0157816020015b6060815260200190600190039081612eec5790505b5090506000612f26604080516002815233602082015230818301526060810190915290565b828281518110612f3857612f38614987565b602002602001018190525060005b8751811015612f96578180600101925050878181518110612f6957612f69614987565b6020026020010151838381518110612f8357612f83614987565b6020908102919091010152600101612f46565b5085511561315057808060010191505083828281518110612fb957612fb9614987565b602002602001018190525060005b865181101561314e57613078878281518110612fe557612fe5614987565b6020026020010151600001516130556130228a858151811061300957613009614987565b6020026020010151602001518051602090810291012090565b7f19457468657265756d205369676e6564204d6573736167653a0a3332000000006000908152601c91909152603c902090565b89848151811061306757613067614987565b602002602001015160400151613417565b6130b1576040517f52bf984800000000000000000000000000000000000000000000000000000000815260048101829052602401610267565b8681815181106130c3576130c3614987565b60200260200101516000015173ffffffffffffffffffffffffffffffffffffffff168582815181106130f7576130f7614987565b602002602001018181525050818060010192505086818151811061311d5761311d614987565b60200260200101516020015183838151811061313b5761313b614987565b6020908102919091010152600101612fc7565b505b5095945050505050565b6000602082901b77ffffffffffffffffffffffffffffffffffffffff0000000016600217610723565b600082601211156131b857601283900360018316156131ae576131a68582613488565b915050611b09565b6131a685826134d6565b6012831115613201577fffffffffffffffffffffffffffffffffffffffffffffffffffffffffffffffee830160028316156131f7576131a68582613502565b6131a68582613588565b5082611b09565b60008360ff168360ff16111561324657838303600283161561323957613231868260ff16613502565b915050612be6565b613231868260ff16613588565b8260ff168460ff16111561327a57828403600183161561326d57613231868260ff16613488565b613231868260ff166134d6565b50929392505050565b600062010000602083901b77ffffffffffffffffffffffffffffffffffffffff000000001617610723565b6000806132bc8686866135b7565b905060018360028111156132d2576132d2615044565b1480156132ef5750600084806132ea576132ea615073565b868809115b15613302576132ff6001826144d7565b90505b95945050505050565b60606000808573ffffffffffffffffffffffffffffffffffffffff168560405161333591906150a2565b600060405180830381855af49150503d8060008114613370576040519150601f19603f3d011682016040523d82523d6000602084013e613375565b606091505b5091509150613386868383876136e1565b9695505050505050565b6060612be68484600085613781565b6002810282016003015161ffff1660006133b884611ece565b8451909150600560028302840101908111806133d45750818410155b1561340f5784846040517fd3fc97bd0000000000000000000000000000000000000000000000000000000081526004016102679291906150b4565b505092915050565b6000806000613426858561389a565b9092509050600081600481111561343f5761343f615044565b14801561347757508573ffffffffffffffffffffffffffffffffffffffff168273ffffffffffffffffffffffffffffffffffffffff16145b8061338657506133868686866138df565b6000604e82106134ac57821561349f5760016134a2565b60005b60ff169050610723565b600a82900a8084816134c0576134c0615073565b049150808202841461192a575060010192915050565b6000604e8210156134f95781600a0a83816134f3576134f3615073565b04611b09565b50600092915050565b6000604e8210613542578215613538577fffffffffffffffffffffffffffffffffffffffffffffffffffffffffffffffff61353b565b60005b9050610723565b50600a81900a828102908381838161355c5761355c615073565b041461192a577fffffffffffffffffffffffffffffffffffffffffffffffffffffffffffffffff612be6565b600a81900a61359781846150d6565b9050604e82106107235782156134f9576135b282600a61520d565b611b09565b600080807fffffffffffffffffffffffffffffffffffffffffffffffffffffffffffffffff8587098587029250828110838203039150508060000361360f5783828161360557613605615073565b0492505050611b09565b808411613678576040517f08c379a000000000000000000000000000000000000000000000000000000000815260206004820152601560248201527f4d6174683a206d756c446976206f766572666c6f7700000000000000000000006044820152606401610267565b60008486880960026001871981018816978890046003810283188082028403028082028403028082028403028082028403028082028403029081029092039091026000889003889004909101858311909403939093029303949094049190911702949350505050565b606083156137775782516000036137705773ffffffffffffffffffffffffffffffffffffffff85163b613770576040517f08c379a000000000000000000000000000000000000000000000000000000000815260206004820152601d60248201527f416464726573733a2063616c6c20746f206e6f6e2d636f6e74726163740000006044820152606401610267565b5081612be6565b612be68383613a3c565b606082471015613813576040517f08c379a000000000000000000000000000000000000000000000000000000000815260206004820152602660248201527f416464726573733a20696e73756666696369656e742062616c616e636520666f60448201527f722063616c6c00000000000000000000000000000000000000000000000000006064820152608401610267565b6000808673ffffffffffffffffffffffffffffffffffffffff16858760405161383c91906150a2565b60006040518083038185875af1925050503d8060008114613879576040519150601f19603f3d011682016040523d82523d6000602084013e61387e565b606091505b509150915061388f878383876136e1565b979650505050505050565b60008082516041036138d05760208301516040840151606085015160001a6138c487828585613a80565b945094505050506138d8565b506000905060025b9250929050565b60008060008573ffffffffffffffffffffffffffffffffffffffff16631626ba7e60e01b8686604051602401613916929190615219565b604080517fffffffffffffffffffffffffffffffffffffffffffffffffffffffffffffffe08184030181529181526020820180517bffffffffffffffffffffffffffffffffffffffffffffffffffffffff167fffffffff0000000000000000000000000000000000000000000000000000000090941693909317909252905161399f91906150a2565b600060405180830381855afa9150503d80600081146139da576040519150601f19603f3d011682016040523d82523d6000602084013e6139df565b606091505b50915091508180156139f357506020815110155b8015613386575080517f1626ba7e0000000000000000000000000000000000000000000000000000000090613a319083016020908101908401614585565b149695505050505050565b815115613a4c5781518083602001fd5b806040517f08c379a00000000000000000000000000000000000000000000000000000000081526004016102679190614e7d565b6000807f7fffffffffffffffffffffffffffffff5d576e7357a4501ddfe92f46681b20a0831115613ab75750600090506003613b66565b6040805160008082526020820180845289905260ff881692820192909252606081018690526080810185905260019060a0016020604051602081039080840390855afa158015613b0b573d6000803e3d6000fd5b50506040517fffffffffffffffffffffffffffffffffffffffffffffffffffffffffffffffe0015191505073ffffffffffffffffffffffffffffffffffffffff8116613b5f57600060019250925050613b66565b9150600090505b94509492505050565b73ffffffffffffffffffffffffffffffffffffffff81168114611f7657600080fd5b600080600060608486031215613ba657600080fd5b8335613bb181613b6f565b95602085013595506040909401359392505050565b600060208284031215613bd857600080fd5b5035919050565b600080600080600060808688031215613bf757600080fd5b8535613c0281613b6f565b94506020860135613c1281613b6f565b935060408601359250606086013567ffffffffffffffff80821115613c3657600080fd5b818801915088601f830112613c4a57600080fd5b813581811115613c5957600080fd5b896020828501011115613c6b57600080fd5b9699959850939650602001949392505050565b600060208284031215613c9057600080fd5b8135611b0981613b6f565b600060208284031215613cad57600080fd5b813567ffffffffffffffff811115613cc457600080fd5b820160808185031215611b0957600080fd5b7f4e487b7100000000000000000000000000000000000000000000000000000000600052604160045260246000fd5b6040516060810167ffffffffffffffff81118282101715613d2857613d28613cd6565b60405290565b604051601f82017fffffffffffffffffffffffffffffffffffffffffffffffffffffffffffffffe016810167ffffffffffffffff81118282101715613d7557613d75613cd6565b604052919050565b8015158114611f7657600080fd5b803561039c81613d7d565b600060608284031215613da857600080fd5b613db0613d05565b90508135613dbd81613b6f565b81526020820135613dcd81613b6f565b60208201526040820135613de081613b6f565b604082015292915050565b600067ffffffffffffffff821115613e0557613e05613cd6565b5060051b60200190565b803560ff8116811461039c57600080fd5b600060608284031215613e3257600080fd5b613e3a613d05565b90508135613e4781613b6f565b8152613e5560208301613e0f565b60208201526040820135604082015292915050565b600082601f830112613e7b57600080fd5b81356020613e90613e8b83613deb565b613d2e565b82815260609283028501820192828201919087851115613eaf57600080fd5b8387015b85811015613ed257613ec58982613e20565b8452928401928101613eb3565b5090979650505050505050565b600060e08284031215613ef157600080fd5b60405160a0810167ffffffffffffffff8282108183111715613f1557613f15613cd6565b8160405282935084359150613f2982613b6f565b818352613f3860208601613d8b565b6020840152613f4a8660408701613d96565b604084015260a0850135915080821115613f6357600080fd5b613f6f86838701613e6a565b606084015260c0850135915080821115613f8857600080fd5b50613f9585828601613e6a565b6080830152505092915050565b600082601f830112613fb357600080fd5b813567ffffffffffffffff811115613fcd57613fcd613cd6565b613ffe60207fffffffffffffffffffffffffffffffffffffffffffffffffffffffffffffffe0601f84011601613d2e565b81815284602083860101111561401357600080fd5b816020850160208301376000918101602001919091529392505050565b600082601f83011261404157600080fd5b81356020614051613e8b83613deb565b82815260059290921b8401810191818101908684111561407057600080fd5b8286015b8481101561419557803567ffffffffffffffff8082111561409457600080fd5b908801906060828b037fffffffffffffffffffffffffffffffffffffffffffffffffffffffffffffffe00112156140cb5760008081fd5b6140d3613d05565b868301356140e081613b6f565b8152604083810135838111156140f65760008081fd5b8401603f81018d136141085760008081fd5b88810135614118613e8b82613deb565b81815260059190911b82018301908a8101908f8311156141385760008081fd5b928401925b828410156141565783358252928b0192908b019061413d565b858c01525050506060840135838111156141705760008081fd5b61417e8d8a83880101613fa2565b918301919091525085525050918301918301614074565b509695505050505050565b60008060008060008587036101408112156141ba57600080fd5b863567ffffffffffffffff808211156141d257600080fd5b6141de8a838b01613edf565b975060208901359150808211156141f457600080fd5b6142008a838b01613edf565b965060c07fffffffffffffffffffffffffffffffffffffffffffffffffffffffffffffffc08401121561423257600080fd5b60408901955061010089013592508083111561424d57600080fd5b6142598a848b01614030565b945061012089013592508083111561427057600080fd5b505061427e88828901614030565b9150509295509295909350565b600060e0828403121561429d57600080fd5b50919050565b6000602082840312156142b557600080fd5b813567ffffffffffffffff8111156142cc57600080fd5b612be68482850161428b565b600080602083850312156142eb57600080fd5b823567ffffffffffffffff8082111561430357600080fd5b818501915085601f83011261431757600080fd5b81358181111561432657600080fd5b8660208260051b850101111561433b57600080fd5b60209290920196919550909350505050565b60005b83811015614368578181015183820152602001614350565b50506000910152565b6000815180845261438981602086016020860161434d565b601f017fffffffffffffffffffffffffffffffffffffffffffffffffffffffffffffffe0169290920160200192915050565b6000602080830181845280855180835260408601915060408160051b870101925083870160005b8281101561442e577fffffffffffffffffffffffffffffffffffffffffffffffffffffffffffffffc088860301845261441c858351614371565b945092850192908501906001016143e2565b5092979650505050505050565b60008060006060848603121561445057600080fd5b833561445b81613b6f565b9250602084013561446b81613b6f565b929592945050506040919091013590565b6000806040838503121561448f57600080fd5b823561449a81613b6f565b946020939093013593505050565b7f4e487b7100000000000000000000000000000000000000000000000000000000600052601160045260246000fd5b80820180821115610723576107236144a8565b8183528181602085013750600060208284010152600060207fffffffffffffffffffffffffffffffffffffffffffffffffffffffffffffffe0601f840116840101905092915050565b600073ffffffffffffffffffffffffffffffffffffffff808916835280881660208401525085604083015284606083015260a0608083015261457960a0830184866144ea565b98975050505050505050565b60006020828403121561459757600080fd5b5051919050565b600082357fffffffffffffffffffffffffffffffffffffffffffffffffffffffffffffffa18336030181126145d257600080fd5b9190910192915050565b60008083357fffffffffffffffffffffffffffffffffffffffffffffffffffffffffffffffe184360301811261461157600080fd5b83018035915067ffffffffffffffff82111561462c57600080fd5b6020019150368190038213156138d857600080fd5b60008083357fffffffffffffffffffffffffffffffffffffffffffffffffffffffffffffffe184360301811261467657600080fd5b83018035915067ffffffffffffffff82111561469157600080fd5b60200191506060810236038213156138d857600080fd5b60008083357fffffffffffffffffffffffffffffffffffffffffffffffffffffffffffffffe18436030181126146dd57600080fd5b83018035915067ffffffffffffffff8211156146f857600080fd5b6020019150600581901b36038213156138d857600080fd5b600081518084526020808501945080840160005b8381101561474057815187529582019590820190600101614724565b509495945050505050565b60608152600061475f6060830187896144ea565b82810360208401528481527f07ffffffffffffffffffffffffffffffffffffffffffffffffffffffffffffff85111561479757600080fd5b8460051b80876020840137018281036020908101604085015261457990820185614710565b6000806000606084860312156147d157600080fd5b83516147dc81613b6f565b60208501519093506147ed81613b6f565b60408501519092506147fe81613b6f565b809150509250925092565b60006060828403121561481b57600080fd5b611b098383613e20565b600081518084526020808501945080840160005b83811015614740578151805173ffffffffffffffffffffffffffffffffffffffff1688528381015160ff16848901526040908101519088015260609096019590820190600101614839565b600073ffffffffffffffffffffffffffffffffffffffff80835116845260208301511515602085015260408301518181511660408601528160208201511660608601528160408201511660808601525050606082015160e060a08501526148ee60e0850182614825565b9050608083015184820360c08601526133028282614825565b600073ffffffffffffffffffffffffffffffffffffffff8087168352808616602084015250608060408301526149406080830185614884565b905082606083015295945050505050565b73ffffffffffffffffffffffffffffffffffffffff851681528360208201526060604082015260006133866060830184866144ea565b7f4e487b7100000000000000000000000000000000000000000000000000000000600052603260045260246000fd5b600061012073ffffffffffffffffffffffffffffffffffffffff871683528060208401526149e681840187614884565b905082810360408401526149fa8186614884565b9150508235606083015260208301356080830152604083013560a0830152606083013560c0830152608083013560e083015260a083013561010083015295945050505050565b81810381811115610723576107236144a8565b600082357fffffffffffffffffffffffffffffffffffffffffffffffffffffffffffffff818336030181126145d257600080fd5b600060808236031215614a9957600080fd5b6040516080810167ffffffffffffffff8282108183111715614abd57614abd613cd6565b816040528435915080821115614ad257600080fd5b614ade36838701613edf565b835260208501356020840152604085013560408401526060850135915080821115614b0857600080fd5b50614b1536828601614030565b60608301525092915050565b600073ffffffffffffffffffffffffffffffffffffffff808716835260206080818501528651608080860152614b5b610100860182614884565b90508188015160a086015260408089015160c08701526060808a01517fffffffffffffffffffffffffffffffffffffffffffffffffffffffffffffff808885030160e08901528381518086528686019150868160051b870101878401935060005b82811015614c34577fffffffffffffffffffffffffffffffffffffffffffffffffffffffffffffffe088830301845284518a815116835289810151878b850152614c0888850182614710565b91890151848303858b0152919050614c208183614371565b968b0196958b019593505050600101614bbc565b50948a019b909b5250509095019590955250919695505050505050565b60007fffffffffffffffffffffffffffffffffffffffffffffffffffffffffffffffff8203614c8257614c826144a8565b5060010190565b60006107233683613edf565b60008083357fffffffffffffffffffffffffffffffffffffffffffffffffffffffffffffffe1843603018112614cca57600080fd5b830160208101925035905067ffffffffffffffff811115614cea57600080fd5b6060810236038213156138d857600080fd5b8183526000602080850194508260005b85811015614740578135614d1f81613b6f565b73ffffffffffffffffffffffffffffffffffffffff16875260ff614d44838501613e0f565b16878401526040828101359088015260609687019690910190600101614d0c565b600073ffffffffffffffffffffffffffffffffffffffff8086168352606060208401528435614d9381613b6f565b811660608401526020850135614da881613d7d565b151560808401526040850135614dbd81613b6f565b811660a08401526060850135614dd281613b6f565b811660c08401526080850135614de781613b6f565b1660e0830152614dfa60a0850185614c95565b60e0610100850152614e1161014085018284614cfc565b915050614e2160c0860186614c95565b7fffffffffffffffffffffffffffffffffffffffffffffffffffffffffffffffa085840301610120860152614e57838284614cfc565b9350505050826040830152949350505050565b602081526000611b096020830184614884565b602081526000611b096020830184614371565b600081518084526020808501808196508360051b8101915082860160005b85811015614ed8578284038952614ec6848351614710565b98850198935090840190600101614eae565b5091979650505050505050565b73ffffffffffffffffffffffffffffffffffffffff851681528360208201528260408201526080606082015260006133866080830184614e90565b600082601f830112614f3157600080fd5b81516020614f41613e8b83613deb565b82815260059290921b84018101918181019086841115614f6057600080fd5b8286015b848110156141955780518352918301918301614f64565b60008060408385031215614f8e57600080fd5b825167ffffffffffffffff80821115614fa657600080fd5b614fb286838701614f20565b93506020850151915080821115614fc857600080fd5b50614fd585828601614f20565b9150509250929050565b73ffffffffffffffffffffffffffffffffffffffff83168152604060208201526000612be66040830184614e90565b828152604060208201526000612be66040830184614710565b60006020828403121561503957600080fd5b8151611b0981613d7d565b7f4e487b7100000000000000000000000000000000000000000000000000000000600052602160045260246000fd5b7f4e487b7100000000000000000000000000000000000000000000000000000000600052601260045260246000fd5b600082516145d281846020870161434d565b6040815260006150c76040830185614371565b90508260208301529392505050565b8082028115828204841417610723576107236144a8565b600181815b8085111561514657817fffffffffffffffffffffffffffffffffffffffffffffffffffffffffffffffff0482111561512c5761512c6144a8565b8085161561513957918102915b93841c93908002906150f2565b509250929050565b60008261515d57506001610723565b8161516a57506000610723565b8160018114615180576002811461518a576151a6565b6001915050610723565b60ff84111561519b5761519b6144a8565b50506001821b610723565b5060208310610133831016604e8410600b84101617156151c9575081810a610723565b6151d383836150ed565b807fffffffffffffffffffffffffffffffffffffffffffffffffffffffffffffffff04821115615205576152056144a8565b029392505050565b6000611b09838361514e565b828152604060208201526000612be6604083018461437156fe416464726573733a206c6f772d6c6576656c2064656c65676174652063616c6c206661696c6564",
    "linkReferences": {}
  },
  "methodIdentifiers": {
    "addOrder(((address,uint8,uint256)[],(address,uint8,uint256)[],(address,bytes,uint256[]),bytes))": "847a1bc9",
    "clear((address,bool,(address,address,address),(address,uint8,uint256)[],(address,uint8,uint256)[]),(address,bool,(address,address,address),(address,uint8,uint256)[],(address,uint8,uint256)[]),(uint256,uint256,uint256,uint256,uint256,uint256),(address,uint256[],bytes)[],(address,uint256[],bytes)[])": "9e18968b",
    "deposit(address,uint256,uint256)": "0efe6a8b",
    "flashFee(address,uint256)": "d9d98ce4",
    "flashLoan(address,address,uint256,bytes)": "5cffe9de",
    "maxFlashLoan(address)": "613255ab",
    "multicall(bytes[])": "ac9650d8",
    "orderExists(bytes32)": "2cb77e9f",
    "removeOrder((address,bool,(address,address,address),(address,uint8,uint256)[],(address,uint8,uint256)[]))": "e23746a3",
    "takeOrders((address,address,uint256,uint256,uint256,((address,bool,(address,address,address),(address,uint8,uint256)[],(address,uint8,uint256)[]),uint256,uint256,(address,uint256[],bytes)[])[],bytes))": "a715c667",
    "vaultBalance(address,address,uint256)": "d97b2e48",
    "withdraw(address,uint256,uint256)": "b5c5f672"
  },
  "id": 159
}