{
    "_format": "hh-sol-artifact-1",
    "contractName": "ZeroExOrderBookFlashBorrower",
    "sourceName": "contracts/orderbook/arb/ZeroExOrderBookFlashBorrower.sol",
    "abi": [
        {
            "inputs": [
                {
                    "components": [
                        {
                            "internalType": "address",
                            "name": "orderBook",
                            "type": "address"
                        },
                        {
                            "internalType": "address",
                            "name": "zeroExExchangeProxy",
                            "type": "address"
                        }
                    ],
                    "internalType": "struct ZeroExOrderBookFlashBorrowerConfig",
                    "name": "config_",
                    "type": "tuple"
                }
            ],
            "stateMutability": "nonpayable",
            "type": "constructor"
        },
        {
            "inputs": [
                {
                    "internalType": "address",
                    "name": "badInitiator",
                    "type": "address"
                }
            ],
            "name": "BadInitiator",
            "type": "error"
        },
        {
            "inputs": [
                {
                    "internalType": "address",
                    "name": "badLender",
                    "type": "address"
                }
            ],
            "name": "BadLender",
            "type": "error"
        },
        {
            "inputs": [],
            "name": "FlashLoanFailed",
            "type": "error"
        },
        {
            "anonymous": false,
            "inputs": [
                {
                    "indexed": false,
                    "internalType": "uint8",
                    "name": "version",
                    "type": "uint8"
                }
            ],
            "name": "Initialized",
            "type": "event"
        },
        {
            "inputs": [
                {
                    "components": [
                        {
                            "internalType": "address",
                            "name": "output",
                            "type": "address"
                        },
                        {
                            "internalType": "address",
                            "name": "input",
                            "type": "address"
                        },
                        {
                            "internalType": "uint256",
                            "name": "minimumInput",
                            "type": "uint256"
                        },
                        {
                            "internalType": "uint256",
                            "name": "maximumInput",
                            "type": "uint256"
                        },
                        {
                            "internalType": "uint256",
                            "name": "maximumIORatio",
                            "type": "uint256"
                        },
                        {
                            "components": [
                                {
                                    "components": [
                                        {
                                            "internalType": "address",
                                            "name": "owner",
                                            "type": "address"
                                        },
                                        {
                                            "internalType": "bool",
                                            "name": "handleIO",
                                            "type": "bool"
                                        },
                                        {
                                            "components": [
                                                {
                                                    "internalType": "contract IInterpreterV1",
                                                    "name": "interpreter",
                                                    "type": "address"
                                                },
                                                {
                                                    "internalType": "contract IInterpreterStoreV1",
                                                    "name": "store",
                                                    "type": "address"
                                                },
                                                {
                                                    "internalType": "address",
                                                    "name": "expression",
                                                    "type": "address"
                                                }
                                            ],
                                            "internalType": "struct Evaluable",
                                            "name": "evaluable",
                                            "type": "tuple"
                                        },
                                        {
                                            "components": [
                                                {
                                                    "internalType": "address",
                                                    "name": "token",
                                                    "type": "address"
                                                },
                                                {
                                                    "internalType": "uint8",
                                                    "name": "decimals",
                                                    "type": "uint8"
                                                },
                                                {
                                                    "internalType": "uint256",
                                                    "name": "vaultId",
                                                    "type": "uint256"
                                                }
                                            ],
                                            "internalType": "struct IO[]",
                                            "name": "validInputs",
                                            "type": "tuple[]"
                                        },
                                        {
                                            "components": [
                                                {
                                                    "internalType": "address",
                                                    "name": "token",
                                                    "type": "address"
                                                },
                                                {
                                                    "internalType": "uint8",
                                                    "name": "decimals",
                                                    "type": "uint8"
                                                },
                                                {
                                                    "internalType": "uint256",
                                                    "name": "vaultId",
                                                    "type": "uint256"
                                                }
                                            ],
                                            "internalType": "struct IO[]",
                                            "name": "validOutputs",
                                            "type": "tuple[]"
                                        }
                                    ],
                                    "internalType": "struct Order",
                                    "name": "order",
                                    "type": "tuple"
                                },
                                {
                                    "internalType": "uint256",
                                    "name": "inputIOIndex",
                                    "type": "uint256"
                                },
                                {
                                    "internalType": "uint256",
                                    "name": "outputIOIndex",
                                    "type": "uint256"
                                },
                                {
                                    "components": [
                                        {
                                            "internalType": "address",
                                            "name": "signer",
                                            "type": "address"
                                        },
                                        {
                                            "internalType": "bytes",
                                            "name": "signature",
                                            "type": "bytes"
                                        },
                                        {
                                            "internalType": "uint256[]",
                                            "name": "context",
                                            "type": "uint256[]"
                                        }
                                    ],
                                    "internalType": "struct SignedContext[]",
                                    "name": "signedContext",
                                    "type": "tuple[]"
                                }
                            ],
                            "internalType": "struct TakeOrderConfig[]",
                            "name": "orders",
                            "type": "tuple[]"
                        }
                    ],
                    "internalType": "struct TakeOrdersConfig",
                    "name": "takeOrders_",
                    "type": "tuple"
                },
                {
                    "internalType": "address",
                    "name": "zeroExSpender_",
                    "type": "address"
                },
                {
                    "internalType": "bytes",
                    "name": "zeroExData_",
                    "type": "bytes"
                }
            ],
            "name": "arb",
            "outputs": [],
            "stateMutability": "nonpayable",
            "type": "function"
        },
        {
            "inputs": [
                {
                    "internalType": "address",
                    "name": "initiator_",
                    "type": "address"
                },
                {
                    "internalType": "address",
                    "name": "",
                    "type": "address"
                },
                {
                    "internalType": "uint256",
                    "name": "",
                    "type": "uint256"
                },
                {
                    "internalType": "uint256",
                    "name": "",
                    "type": "uint256"
                },
                {
                    "internalType": "bytes",
                    "name": "data_",
                    "type": "bytes"
                }
            ],
            "name": "onFlashLoan",
            "outputs": [
                {
                    "internalType": "bytes32",
                    "name": "",
                    "type": "bytes32"
                }
            ],
            "stateMutability": "nonpayable",
            "type": "function"
        },
        {
            "inputs": [],
            "name": "orderBook",
            "outputs": [
                {
                    "internalType": "contract IOrderBookV1",
                    "name": "",
                    "type": "address"
                }
            ],
            "stateMutability": "view",
            "type": "function"
        },
        {
            "inputs": [],
            "name": "zeroExExchangeProxy",
            "outputs": [
                {
                    "internalType": "address",
                    "name": "",
                    "type": "address"
                }
            ],
            "stateMutability": "view",
            "type": "function"
        }
    ],
    "bytecode": "0x60c06040523480156200001157600080fd5b506040516200220a3803806200220a833981016040819052620000349162000071565b80516001600160a01b039081166080526020909101511660a052620000df565b80516001600160a01b03811681146200006c57600080fd5b919050565b6000604082840312156200008457600080fd5b604080519081016001600160401b0381118282101715620000b557634e487b7160e01b600052604160045260246000fd5b604052620000c38362000054565b8152620000d36020840162000054565b60208201529392505050565b60805160a0516120dd6200012d6000396000818160c8015261020c015260008181607c015281816101190152818161027101528181610369015281816103b901526104ab01526120dd6000f3fe608060405234801561001057600080fd5b506004361061004c5760003560e01c806323e30c8b14610051578063776af5ba1461007757806391511a42146100c3578063df5e7d83146100ea575b600080fd5b61006461005f366004610eb5565b6100ff565b6040519081526020015b60405180910390f35b61009e7f000000000000000000000000000000000000000000000000000000000000000081565b60405173ffffffffffffffffffffffffffffffffffffffff909116815260200161006e565b61009e7f000000000000000000000000000000000000000000000000000000000000000081565b6100fd6100f8366004610f31565b610318565b005b60003373ffffffffffffffffffffffffffffffffffffffff7f00000000000000000000000000000000000000000000000000000000000000001614610177576040517f0bc3cde00000000000000000000000000000000000000000000000000000000081523360048201526024015b60405180910390fd5b73ffffffffffffffffffffffffffffffffffffffff871630146101de576040517f8b1f7c6400000000000000000000000000000000000000000000000000000000815273ffffffffffffffffffffffffffffffffffffffff8816600482015260240161016e565b6000806101ed8486018661140b565b909250905061023373ffffffffffffffffffffffffffffffffffffffff7f0000000000000000000000000000000000000000000000000000000000000000168247610735565b506040517fb5afc09300000000000000000000000000000000000000000000000000000000815273ffffffffffffffffffffffffffffffffffffffff7f0000000000000000000000000000000000000000000000000000000000000000169063b5afc093906102a690859060040161183a565b60408051808303816000875af11580156102c4573d6000803e3d6000fd5b505050506040513d601f19601f820116820180604052508101906102e891906119d2565b507f439148f0bbc682ca079e46d6e2c2f0c1e3b820f1a291b069d8882abf8cf18dd99a9950505050505050505050565b610320610763565b600084838360405160200161033793929190611cfc565b6040516020818303038152906040529050600085602001602081019061035d9190611f6c565b905060408601356103b47f0000000000000000000000000000000000000000000000000000000000000000600061039760208b018b611f6c565b73ffffffffffffffffffffffffffffffffffffffff1691906107d6565b6104237f00000000000000000000000000000000000000000000000000000000000000007fffffffffffffffffffffffffffffffffffffffffffffffffffffffffffffffff61040660208b018b611f6c565b73ffffffffffffffffffffffffffffffffffffffff1691906109db565b61043986600061039760408b0160208c01611f6c565b61046e867fffffffffffffffffffffffffffffffffffffffffffffffffffffffffffffffff61040660408b0160208c01611f6c565b6040517f5cffe9de00000000000000000000000000000000000000000000000000000000815273ffffffffffffffffffffffffffffffffffffffff7f00000000000000000000000000000000000000000000000000000000000000001690635cffe9de906104e6903090869086908990600401611f90565b6020604051808303816000875af1158015610505573d6000803e3d6000fd5b505050506040513d601f19601f820116820180604052508101906105299190611fd9565b61055f576040517f92111eb200000000000000000000000000000000000000000000000000000000815260040160405180910390fd5b60405133904780156108fc02916000818181858888f1935050505015801561058b573d6000803e3d6000fd5b50600061059e6040890160208a01611f6c565b6040517f70a0823100000000000000000000000000000000000000000000000000000000815230600482015273ffffffffffffffffffffffffffffffffffffffff91909116906370a0823190602401602060405180830381865afa15801561060a573d6000803e3d6000fd5b505050506040513d601f19601f8201168201806040525081019061062e9190611ff6565b9050801561066857610668338261064b60408c0160208d01611f6c565b73ffffffffffffffffffffffffffffffffffffffff169190610ad9565b600061067760208a018a611f6c565b6040517f70a0823100000000000000000000000000000000000000000000000000000000815230600482015273ffffffffffffffffffffffffffffffffffffffff91909116906370a0823190602401602060405180830381865afa1580156106e3573d6000803e3d6000fd5b505050506040513d601f19601f820116820180604052508101906107079190611ff6565b9050801561072157610721338261064b60208d018d611f6c565b505050505061072f60018055565b50505050565b606061075b84848460405180606001604052806029815260200161207f60299139610b2f565b949350505050565b6002600154036107cf576040517f08c379a000000000000000000000000000000000000000000000000000000000815260206004820152601f60248201527f5265656e7472616e637947756172643a207265656e7472616e742063616c6c00604482015260640161016e565b6002600155565b80158061087657506040517fdd62ed3e00000000000000000000000000000000000000000000000000000000815230600482015273ffffffffffffffffffffffffffffffffffffffff838116602483015284169063dd62ed3e90604401602060405180830381865afa158015610850573d6000803e3d6000fd5b505050506040513d601f19601f820116820180604052508101906108749190611ff6565b155b610902576040517f08c379a000000000000000000000000000000000000000000000000000000000815260206004820152603660248201527f5361666545524332303a20617070726f76652066726f6d206e6f6e2d7a65726f60448201527f20746f206e6f6e2d7a65726f20616c6c6f77616e636500000000000000000000606482015260840161016e565b60405173ffffffffffffffffffffffffffffffffffffffff83166024820152604481018290526109d69084907f095ea7b300000000000000000000000000000000000000000000000000000000906064015b604080517fffffffffffffffffffffffffffffffffffffffffffffffffffffffffffffffe08184030181529190526020810180517bffffffffffffffffffffffffffffffffffffffffffffffffffffffff167fffffffff0000000000000000000000000000000000000000000000000000000090931692909217909152610c48565b505050565b6040517fdd62ed3e00000000000000000000000000000000000000000000000000000000815230600482015273ffffffffffffffffffffffffffffffffffffffff8381166024830152600091839186169063dd62ed3e90604401602060405180830381865afa158015610a52573d6000803e3d6000fd5b505050506040513d601f19601f82011682018060405250810190610a769190611ff6565b610a80919061200f565b60405173ffffffffffffffffffffffffffffffffffffffff851660248201526044810182905290915061072f9085907f095ea7b30000000000000000000000000000000000000000000000000000000090606401610954565b60405173ffffffffffffffffffffffffffffffffffffffff83166024820152604481018290526109d69084907fa9059cbb0000000000000000000000000000000000000000000000000000000090606401610954565b606082471015610bc1576040517f08c379a000000000000000000000000000000000000000000000000000000000815260206004820152602660248201527f416464726573733a20696e73756666696369656e742062616c616e636520666f60448201527f722063616c6c0000000000000000000000000000000000000000000000000000606482015260840161016e565b6000808673ffffffffffffffffffffffffffffffffffffffff168587604051610bea919061204f565b60006040518083038185875af1925050503d8060008114610c27576040519150601f19603f3d011682016040523d82523d6000602084013e610c2c565b606091505b5091509150610c3d87838387610d54565b979650505050505050565b6000610caa826040518060400160405280602081526020017f5361666545524332303a206c6f772d6c6576656c2063616c6c206661696c65648152508573ffffffffffffffffffffffffffffffffffffffff16610df49092919063ffffffff16565b8051909150156109d65780806020019051810190610cc89190611fd9565b6109d6576040517f08c379a000000000000000000000000000000000000000000000000000000000815260206004820152602a60248201527f5361666545524332303a204552433230206f7065726174696f6e20646964206e60448201527f6f74207375636365656400000000000000000000000000000000000000000000606482015260840161016e565b60608315610dea578251600003610de35773ffffffffffffffffffffffffffffffffffffffff85163b610de3576040517f08c379a000000000000000000000000000000000000000000000000000000000815260206004820152601d60248201527f416464726573733a2063616c6c20746f206e6f6e2d636f6e7472616374000000604482015260640161016e565b508161075b565b61075b8383610e03565b606061075b8484600085610b2f565b815115610e135781518083602001fd5b806040517f08c379a000000000000000000000000000000000000000000000000000000000815260040161016e919061206b565b73ffffffffffffffffffffffffffffffffffffffff81168114610e6957600080fd5b50565b60008083601f840112610e7e57600080fd5b50813567ffffffffffffffff811115610e9657600080fd5b602083019150836020828501011115610eae57600080fd5b9250929050565b60008060008060008060a08789031215610ece57600080fd5b8635610ed981610e47565b95506020870135610ee981610e47565b94506040870135935060608701359250608087013567ffffffffffffffff811115610f1357600080fd5b610f1f89828a01610e6c565b979a9699509497509295939492505050565b60008060008060608587031215610f4757600080fd5b843567ffffffffffffffff80821115610f5f57600080fd5b9086019060c08289031215610f7357600080fd5b909450602086013590610f8582610e47565b90935060408601359080821115610f9b57600080fd5b50610fa887828801610e6c565b95989497509550505050565b7f4e487b7100000000000000000000000000000000000000000000000000000000600052604160045260246000fd5b6040516060810167ffffffffffffffff8111828210171561100657611006610fb4565b60405290565b60405160c0810167ffffffffffffffff8111828210171561100657611006610fb4565b6040516080810167ffffffffffffffff8111828210171561100657611006610fb4565b60405160a0810167ffffffffffffffff8111828210171561100657611006610fb4565b604051601f82017fffffffffffffffffffffffffffffffffffffffffffffffffffffffffffffffe016810167ffffffffffffffff811182821017156110bc576110bc610fb4565b604052919050565b600067ffffffffffffffff8211156110de576110de610fb4565b5060051b60200190565b8015158114610e6957600080fd5b8035611101816110e8565b919050565b60006060828403121561111857600080fd5b611120610fe3565b9050813561112d81610e47565b8152602082013561113d81610e47565b6020820152604082013561115081610e47565b604082015292915050565b803560ff8116811461110157600080fd5b600082601f83011261117d57600080fd5b8135602061119261118d836110c4565b611075565b828152606092830285018201928282019190878511156111b157600080fd5b8387015b858110156112085781818a0312156111cd5760008081fd5b6111d5610fe3565b81356111e081610e47565b81526111ed82870161115b565b818701526040828101359082015284529284019281016111b5565b5090979650505050505050565b600082601f83011261122657600080fd5b813567ffffffffffffffff81111561124057611240610fb4565b61127160207fffffffffffffffffffffffffffffffffffffffffffffffffffffffffffffffe0601f84011601611075565b81815284602083860101111561128657600080fd5b816020850160208301376000918101602001919091529392505050565b600082601f8301126112b457600080fd5b813560206112c461118d836110c4565b828152600592831b85018201928282019190878511156112e357600080fd5b8387015b8581101561120857803567ffffffffffffffff808211156113085760008081fd5b818a0191506060807fffffffffffffffffffffffffffffffffffffffffffffffffffffffffffffffe0848e030112156113415760008081fd5b611349610fe3565b8884013561135681610e47565b81526040848101358481111561136c5760008081fd5b61137a8f8c83890101611215565b838c0152509184013591838311156113925760008081fd5b82850194508d603f8601126113a957600093508384fd5b8985013593506113bb61118d856110c4565b84815293871b85018101938a810193508e8511156113d95760008081fd5b948101945b848610156113f75785358452948a0194928a01926113de565b9082015287525050509284019284016112e7565b6000806040838503121561141e57600080fd5b67ffffffffffffffff808435111561143557600080fd5b8335840160c0818703121561144957600080fd5b61145161100c565b61145b8235610e47565b8135815261146c6020830135610e47565b602082013560208201526040820135604082015260608201356060820152608082013560808201528260a083013511156114a557600080fd5b60a08201358201915086601f8301126114bd57600080fd5b6114ca61118d83356110c4565b82358082526020808301929160051b8501018910156114e857600080fd5b602084015b6020853560051b86010181101561166957858135111561150c57600080fd5b7fffffffffffffffffffffffffffffffffffffffffffffffffffffffffffffffe0608081833588018d0301121561154257600080fd5b61154a61102f565b876020843589010135111561155e57600080fd5b8235870160208101350160e0818e038401121561157a57600080fd5b611582611052565b92506115916020820135610e47565b602081013583526115a4604082016110f6565b60208401526115b68d60608301611106565b60408401528860c082013511156115cc57600080fd5b6115df8d602060c084013584010161116c565b60608401528860e082013511156115f557600080fd5b6116088d602060e084013584010161116c565b6080840152508181526040833588010135602082015260608335880101356040820152876080843589010135111561163f57600080fd5b6116558c843589016080810135016020016112a3565b6060820152845250602092830192016114ed565b5060a083015250935050602084013581101561168457600080fd5b506116958460208501358501611215565b90509250929050565b600081518084526020808501945080840160005b838110156116fd578151805173ffffffffffffffffffffffffffffffffffffffff1688528381015160ff168489015260409081015190880152606090960195908201906001016116b2565b509495945050505050565b60005b8381101561172357818101518382015260200161170b565b50506000910152565b60008151808452611744816020860160208601611708565b601f017fffffffffffffffffffffffffffffffffffffffffffffffffffffffffffffffe0169290920160200192915050565b600081518084526020808501808196508360051b810191508286016000805b8681101561182c578385038a528251606073ffffffffffffffffffffffffffffffffffffffff82511687528782015181898901526117d58289018261172c565b604093840151898203948a01949094528351808252938a0193869350908a0191505b8083101561181757835182529289019260019290920191908901906117f7565b509b88019b9650505091850191600101611795565b509298975050505050505050565b6000602080835260e080840173ffffffffffffffffffffffffffffffffffffffff808751168487015283870151604082821681890152808901519150606082818a0152808a01519250608083818b0152808b015193508360a08b015260a08b0151935060c0808b01528584518088526101009750878c019150878160051b8d01018a8701965060005b828110156119c0578d82037fffffffffffffffffffffffffffffffffffffffffffffffffffffffffffffff000184528751805186845280518b16878501528d810151151560a08501528881015180518c1660c0860152808f01518c168e8601528901518b168c8501528781015161012085018e905261194661016086018261169e565b918801518583037fffffffffffffffffffffffffffffffffffffffffffffffffffffffffffffff8001610140870152919050611982818361169e565b9150508d8201518e8501528882015189850152878201519150838103888501526119ac8183611776565b998e0199958e0195935050506001016118c3565b509d9c50505050505050505050505050565b600080604083850312156119e557600080fd5b505080516020909101519092909150565b60008083357fffffffffffffffffffffffffffffffffffffffffffffffffffffffffffffffe1843603018112611a2b57600080fd5b830160208101925035905067ffffffffffffffff811115611a4b57600080fd5b8060051b3603821315610eae57600080fd5b60008083357fffffffffffffffffffffffffffffffffffffffffffffffffffffffffffffffe1843603018112611a9257600080fd5b830160208101925035905067ffffffffffffffff811115611ab257600080fd5b606081023603821315610eae57600080fd5b8183526000602080850194508260005b858110156116fd578135611ae781610e47565b73ffffffffffffffffffffffffffffffffffffffff16875260ff611b0c83850161115b565b16878401526040828101359088015260609687019690910190600101611ad4565b8183528181602085013750600060208284010152600060207fffffffffffffffffffffffffffffffffffffffffffffffffffffffffffffffe0601f840116840101905092915050565b81835260007f07ffffffffffffffffffffffffffffffffffffffffffffffffffffffffffffff831115611ba857600080fd5b8260051b80836020870137939093016020019392505050565b81835260006020808501808196508560051b810191508460005b87811015611cef57828403895281357fffffffffffffffffffffffffffffffffffffffffffffffffffffffffffffffa1883603018112611c1a57600080fd5b870160608135611c2981610e47565b73ffffffffffffffffffffffffffffffffffffffff16865281870135368390037fffffffffffffffffffffffffffffffffffffffffffffffffffffffffffffffe1018112611c7657600080fd5b8201878101903567ffffffffffffffff811115611c9257600080fd5b803603821315611ca157600080fd5b8289890152611cb38389018284611b2d565b925050506040611cc5818401846119f6565b935087830382890152611cd9838583611b76565b9c89019c97505050928601925050600101611bdb565b5091979650505050505050565b600060408083526101008084018735611d1481610e47565b73ffffffffffffffffffffffffffffffffffffffff9081168685015260209089820135611d4081610e47565b818116606089015250848a0135608088015260608a013560a088015260808a013560c0880152611d7360a08b018b6119f6565b60c060e08a01529384905261012093848901600582901b8a0186018360005b84811015611f46577ffffffffffffffffffffffffffffffffffffffffffffffffffffffffffffffee08d840301845281357fffffffffffffffffffffffffffffffffffffffffffffffffffffffffffffff81873603018112611df357600080fd5b86018035368290037fffffffffffffffffffffffffffffffffffffffffffffffffffffffffffffff21018112611e2857600080fd5b6080855281018035611e3981610e47565b89166080860152808a0135611e4d816110e8565b151560a0860152808d0135611e6181610e47565b891660c08601526060810135611e7681610e47565b891660e08601526080810135611e8b81610e47565b8916858d0152611e9e60a0820182611a5d565b60e08d880152611eb361016088018284611ac4565b915050611ec360c0830183611a5d565b92507fffffffffffffffffffffffffffffffffffffffffffffffffffffffffffffff8087830301610140880152611efb828483611ac4565b92505050898201358a8601528c8201358d860152611f1c60608301836119f6565b92508582036060870152611f31828483611bc1565b968b0196955050509188019150600101611d92565b50508a8103868c0152611f5a818d8f611b2d565b9e9d5050505050505050505050505050565b600060208284031215611f7e57600080fd5b8135611f8981610e47565b9392505050565b600073ffffffffffffffffffffffffffffffffffffffff808716835280861660208401525083604083015260806060830152611fcf608083018461172c565b9695505050505050565b600060208284031215611feb57600080fd5b8151611f89816110e8565b60006020828403121561200857600080fd5b5051919050565b80820180821115612049577f4e487b7100000000000000000000000000000000000000000000000000000000600052601160045260246000fd5b92915050565b60008251612061818460208701611708565b9190910192915050565b602081526000611f89602083018461172c56fe416464726573733a206c6f772d6c6576656c2063616c6c20776974682076616c7565206661696c6564a264697066735822122035249286c6e03defaf81838eeefe3c109b04153f7349ba4a981f967dae65a42564736f6c63430008120033",
    "linkReferences": {},
    "deployedLinkReferences": {}
}